:020000040800F2
:10000000D0160020810E00089D0200089F02000803
:10001000A3020008A7020008AB02000800000000CD
:10002000000000000000000000000000B102000815
:10003000AF02000800000000B3020008B50200088B
:10004000B7020008B9020008BB020008BD020008A0
:10005000BF020008C1020008A3260008C12600084C
:10006000E12600081117000819170008C30200084C
:10007000C5020008C7020008C9020008CB02000838
:10008000CD020008CF020008D1020008D302000808
:10009000D5020008D7020008D9020008352100085F
:1000A000DB020008DD020008DF020008E1020008B0
:1000B000E3020008B11800087B1D0008E5020008F3
:1000C000E7020008E9020008EB020008ED02000860
:1000D000EF0200082B200008F1020008F3020008DC
:1000E00021170008F5020008F7020008F9020008CD
:1000F000FB020008FD020008FF02000801030008DF
:1001000003030008050300080703000809030008AB
:100110000B0300080D0300080F030008110300087B
:10012000130300081503000817030008190300084B
:1001300000F002F800F03AF80AA090E8000C8244BF
:100140008344AAF10107DA4501D100F02FF8AFF29C
:10015000090EBAE80F0013F0010F18BFFB1A43F0A5
:1001600001031847AC860000CC860000103A24BF7B
:1001700078C878C1FAD8520724BF30C830C144BF0C
:1001800004680C607047000000230024002500264E
:10019000103A28BF78C1FBD8520728BF30C148BFEA
:1001A0000B6070471FB51FBD10B510BD05F006FFF1
:1001B0001146FFF7F7FF00F009F805F024FF03B43C
:1001C000FFF7F2FF03BC05F025FF000000F06AFE18
:1001D000482000F05FFF00F0B5FF01F08FF94FF409
:1001E000165001F01DFA01F05BFA01F0F3F901F08D
:1001F000E1FE03F060FF01F01BFE00F0FCFA1421A9
:10020000244805F09DFE012022490870487000BF77
:1002100020480078002837D001F002FF05F024FBC9
:1002200004F057FA02F01AFA02F057FC02F08BFCC5
:1002300001F06CFF01F0EDFD02F073FD00201549A7
:1002400008708870144890F8280000F0020008B187
:10025000012008740F484078012808D10E4890F812
:10026000280000F0100010B106200A494870094823
:100270004078062803D1022002F038FE04E0002076
:100280000449487002F0F0F902F03DFA02F0ABFBCD
:10029000BEE700001800002058090020704700BF8A
:1002A000FEE700BFFEE700BFFEE700BFFEE77047C6
:1002B0007047704770477047704770477047704786
:1002C0007047704770477047704770477047704776
:1002D0007047704770477047704770477047704766
:1002E0007047704770477047704770477047704756
:1002F0007047704770477047704770477047704746
:100300007047704770477047704770477047704735
:10031000704770477047704770470000DE480068BC
:1003200040F00100DC49086008464068DB490840AD
:10033000D949486008460068D9490840D64908604C
:100340000846006820F4802008600846406820F4D1
:10035000FE004860002088607047CF49096821F49A
:100360008031CD4A11601146096821F48021116065
:10037000B0F5803F03D0B0F5802F0ED106E0C6491E
:10038000096841F48031C44A116007E0C249096834
:1003900041F4A021C04A116000E000BF00BF7047D7
:1003A00010B501460022002300204A11012A02D183
:1003B000B94C236806E0022A02D1B74C236A01E057
:1003C000B54C636A01F01F02012494401C400CB13B
:1003D000012000E0002010BD38B50020009000246E
:1003E000002500BF3120FFF7DBFF05460098401CC9
:1003F00000901DB90098B0F5A06FF3D13120FFF740
:10040000CFFF08B1012400E00024204638BD01469A
:100410000020A14A106820F0F80040EAC1001060F6
:100420007047A04908607047024600209A4B586800
:1004300020F47C1042EA01031843974B5860704740
:1004400098490866704701460020934A506820F09A
:1004500003000843506070478F48406800F00C006C
:100460007047014600208C4A506820F0F000084395
:100470005060704701460020874A506820F4E060D1
:1004800008435060704701460020834A506820F4BA
:10049000605040EAC1005060704729B17E4A527AEC
:1004A00002437D4B5A7204E07B4A527A82437A4B74
:1004B0005A7270477B49D831086070470146002066
:1004C000754A506820F4404008435060704700214E
:1004D000714A20321170704A82F82010012802D02F
:1004E00004280AD104E001216B4A2032117005E092
:1004F0000521694A2032117000E000BF00BF70473B
:100500006949086070476449096A0143624A116297
:100510007047654944390860704730B500210022B2
:10052000002400235C4D6D6805F00C0121B1042905
:1005300005D0082923D105E05C4D056022E05B4D24
:1005400005601FE0544D6D6805F47012022505EB3F
:100550009242514D6D6805F480341CB9544D554399
:1005600005600BE04C4D6D6805F400351DB1504D34
:100570005543056002E04D4D5543056002E04B4D8B
:10058000056000BF00BF444D6D6805F0F00109092A
:10059000484D6B5C0568DD4045603F4D6D6805F476
:1005A000E061090A434D6B5C4568DD4085603A4D6A
:1005B0006D6805F46051C90A3E4D6B5C4568DD40CD
:1005C000C560354D6D6805F44041890B3A4D6B5C53
:1005D000C568B5FBF3F5056130BD29B12E4A5269F6
:1005E00002432D4B5A6104E02B4A526982432A4B45
:1005F0005A61704729B1284A92690243264B9A6191
:1006000004E0254A92698243234B9A61704729B1DD
:10061000214AD2690243204BDA6104E01E4AD269C2
:1006200082431D4BDA61704729B11B4AD2680243ED
:10063000194BDA6004E0184AD2688243164BDA603C
:10064000704729B1144A12690243134B1A6104E03E
:10065000114A12698243104B1A617047124940399E
:10066000086070470F49C86470470B49C8717047EC
:100670000948406A40F08070074948627047014667
:100680000020054A92680A400AB1012000E00020DB
:100690007047014988727047001002400000FFF85F
:1006A000FFFFF6FE000042428004424200127A0040
:1006B00000093D0006850008168500080020411E3F
:1006C000ED4A11600A09EC498039C1F88420411EC5
:1006D0004FF0E022C2F880120A09E8490A6000BF20
:1006E00004E00022E64941F82020401C0F28F8D3FE
:1006F000704700204FF02061E24A11600021121D76
:100700001160E149121D11600021121D1160121DBE
:10071000116000BF05E00022DA49143141F82020C1
:10072000401C0328F7D30021D64A20321160491E0D
:10073000121D1160121D1160121D11607047D24907
:100740000143D04A083211607047F0B50021002201
:10075000002300250F24C678002E35D0C94E083658
:10076000366806F4E066C6F5E066310AC1F10405B4
:10077000CC40467806FA05F18678264031430901D7
:100780000678B607F60EB140BD4E0778BF1056F892
:1007900027200678B607F70EFF2606FA07F39A43D6
:1007A00019400A43B64E0778BF1046F8272006784E
:1007B00006F01F070126BE4007787F11BF0007F132
:1007C000E027C7F800610BE0067806F01F07012656
:1007D000BE40A94F90F800C04FEA6C1C47F82C604F
:1007E000F0BD0021017041708170C170704710B57B
:1007F00000F02FFB10BD10B500F029FB10BD10B5A7
:1008000000F02CFB10BD10B500F02AFB10BD10B598
:100810000446200100F029FB10BD10B500F028FBB4
:1008200010BD98480068C0F30930704710B5014604
:100830000020002201F01F04012303FA04F28E4B72
:1008400080334C1153F824301340934201D10120DE
:1008500000E0002010BD8D490860704700F01F02C5
:1008600001219140854A121F431142F8231070471D
:1008700084480068C0F30900704710B501460020A5
:10088000002201F01F04012303FA04F27B4B7C33A6
:100890004C1153F824301340934201D1012000E061
:1008A000002010BD7748001F00687047784A0A4052
:1008B0000243744B1B1D1A6070477348001D714939
:1008C0000831086070477048401C6E490831086064
:1008D000704739B16B4A0C3212680243694B0C33D2
:1008E0001A6006E0674A0C3212688243654B0C338B
:1008F0001A60704710B5002200F01F04012303FAAC
:1009000004F239B15F4B20331B6813435D4C203434
:10091000236006E05B4B20331B689343594C203423
:10092000236010BDF0B503460C4615460020FF229B
:1009300000260021534F08373F6807F4E067C7F5EA
:10094000E067390AC1F10400CA4004FA00F105EA7F
:1009500002073943090103F0C0008009C3F30122F3
:10096000D700B9404FEAC20CFF2707FA0CF6454FF3
:10097000143757F82070B743DFF808C10CF1140C96
:100980004CF82070674657F820700F434CF82070E1
:10099000F0BD10B50246002000230021910A01F0AD
:1009A0000F01012404FA01F1364C2034246804EAD2
:1009B00001038B4201D1012000E0002010BD002185
:1009C00000F01F012F4A126801238B401A432D4B60
:1009D0001A60704710B5002100F01F01294A126803
:1009E0004B1E01249C402243264B1A6010BD10B5BB
:1009F0000246002000230021C2F38331012404FABF
:100A000001F1204C2034246804EA01038B4201D117
:100A1000012000E0002010BD30B50146002000227A
:100A20000023C1F38142C1F301531AB9154C283494
:100A3000206811E0012A0CD1124C24342468DD0016
:100A400024FA05F0022B02D000F00F0004E0C0B23F
:100A500002E00C4C2C34206830BD014600200022FE
:100A6000C1F380521AB9074B3033186802E0054BC6
:100A7000343318687047000080E100E084E200E051
:100A800000E400E004ED00E00000FA0500EF00E003
:100A900080FFFF1F10B50446D749601A8C422BD047
:100AA00006DCD648204498B1B0F5806F38D119E003
:100AB000B0F5806F2AD0B0F56C4F31D10121880399
:100AC000FFF7B2FD00214FF48040FFF7ADFD28E0B5
:100AD00001214804FFF7B5FD00214FF40030FFF776
:100AE000B0FD1EE001218804FFF7ABFD00214FF4AB
:100AF0008020FFF7A6FD14E00121C804FFF7A1FD47
:100B000000214FF40020FFF79CFD0AE001210805B9
:100B1000FFF797FD00214FF48010FFF792FD00E0F2
:100B200000BF00BF10BD2DE9F04786B005460E4658
:100B30000024A24600BF00BF00272F462C8A4CF697
:100B4000FF700440F08804432C82AC894EF6F31009
:100B50000440B08831890843718908430443AC815B
:100B6000AC8A4FF6FF400440B0890443AC8201A830
:100B7000FFF7D3FCA248874202D1DDF810A001E0C4
:100B8000DDF80CA00AEBCA0000EB0A1031688900FE
:100B9000B0FBF1F86420B8FBF0F0040120096421F7
:100BA00001FB1089322000EB0910B0FBF1F000F0DE
:100BB0000F0004432C8106B0BDE8F0874FF41651B6
:100BC000016000218180C18001810C2141810021CF
:100BD0008181704710B502460020108A4FF2FF0352
:100BE00018400B884C8823438C882343CC882343AC
:100BF0001843108210BD0021018041808180C18096
:100C0000704721B1828942F40052828104E08289D6
:100C10004DF6FF731A4082817047F0B503460024F9
:100C20000026002500201846C1F3421401F01F06DB
:100C3000012707FA06F5012C01D10C3004E0022C43
:100C400001D1103000E014301AB107682F4307605B
:100C500002E00768AF430760F0BD1AB1838A0B4317
:100C6000838202E0838A8B4383827047028A4FF635
:100C7000F0731A400282028A0A4302827047828914
:100C80004FF2FF731A40828182890A438281704742
:100C900021B1828942F00202828104E082894FF60A
:100CA000FD731A4082817047028A4FF6DF731A4043
:100CB0000282028A0A430282704721B1028A42F408
:100CC0008042028204E0028A4BF6FF731A400282DD
:100CD0007047C1F308028280704701468888C0F3DC
:100CE00008007047818941F0010181817047028BC2
:100CF000D2B20283028B42EA012202837047028B46
:100D000002F47F420283028B0A430283704721B1BF
:100D1000828A42F02002828204E0828A4FF6DF73E8
:100D20001A408282704721B1828A42F01002828288
:100D300004E0828A4FF6EF731A408282704721B135
:100D4000828A42F00802828204E0828A4FF6F773B8
:100D50001A4082827047828A4FF6FB731A40828261
:100D6000828A0A438282704721B1828A42F002025B
:100D7000828204E0828A4FF6FD731A4082827047B5
:100D80000246002013880B400BB1012000E0002038
:100D90007047CA430280704770B502460B46002474
:100DA000002100250020C3F3421503F01F01012696
:100DB00006FA01F1012D02D19689314006E0022D9B
:100DC00002D1168A314001E0968A31401C12012678
:100DD00006FA04F41688344011B10CB1012000E089
:100DE000002070BD10B5002200230A120124944097
:100DF000A3B2DC43048010BD004C004000BCFFBF28
:100E00000038014030BF704720BF704740BF704777
:100E1000BFF36F8F7047BFF34F8F7047BFF35F8F84
:100E2000704701DF7047EFF31480704780F3148838
:100E3000BFF36F8F7047EFF30980704780F3098825
:100E40007047EFF30880704780F30888704762B6F8
:100E5000704772B67047EFF31080704771B67047F5
:100E600061B67047EFF31380704780F311887047C5
:100E7000EFF31280704740BA704700BA7047000025
:100E80000348004703480449044A054B70470000E3
:100E900031010008D00E0020D0160020D012002012
:100EA000D012002070B500250024FFF737FA6F48F4
:100EB000006840F480306D49086000BF01E0601CAC
:100EC000C4B26A480068400C08B9C82CF7DB68480F
:100ED000006840F03200664908606448406865492F
:100EE0000843624948600846006840F08070086026
:100EF000002401E0601CC4B25C480068400E08B9E0
:100F0000C82CF7DB5948406840F002005749486058
:100F100007E056484068C0F38705601CC4B205F07E
:100F20000305022D01D0C82CF3DB70BD524A0A40E4
:100F30000243524B1A6070470146072323EA01021D
:100F400012024E4B1B1D18684FF6FF0318404C4B06
:100F500018431043494B1B1D186070472DE9F0479B
:100F60008046894614461D462046E11704EB9171E0
:100F7000C1F3870AE11704EB91718910A4EB810199
:100F8000CFB2042000EBC700C7B22846FFF7D4FF5A
:100F9000C5F1040008FA00F60F20284100EA090014
:100FA000064306F00F06202C09DA364801680120B6
:100FB000A04001434FF0E020C0F800110BE03148A1
:100FC000001D0068A4F1200101228A4010434FF067
:100FD000E021C1F804012C4850F82A0006FA07F174
:100FE0000843294941F82A00BDE8F08770B5034657
:100FF0000846CE1701EB9676C6F38704CE1701EBB1
:101000009676B610A1EB8606B606350E17488069AF
:1010100040F00100154EB0614FEAB63050F82400A0
:1010200003FA05F63043194E46F8240018480668BE
:101030000120884006431648066002F0010040B1D6
:1010400013480C30066801208840064310480C30D5
:10105000066002F0020040B10D4808300068012629
:101060008E4030430A4E0836306070BD001002409A
:101070000020024000241D0080FFFF1F08ED00E05B
:101080000000FA0500E100E000E400E00800014093
:10109000000401404FF0E021096921F004014FF004
:1010A000E0221161C21700EB5272C2F3C702234B58
:1010B0001A701946097801EB4102C2EBC1114FF6D3
:1010C000FF7202EAC1011E4A1180704701461B4AA5
:1010D00012784A434FF0E0235A6100229A610122BC
:1010E0001A6100BF4FF0E022106900F001021AB14E
:1010F00000F48032002AF5D000224FF0E0231A617C
:101100009A61704701460E4A12884A434FF0E02325
:101110005A6100229A6101221A6100BF4FF0E02259
:10112000106900F001021AB100F48032002AF5D0F3
:1011300000224FF0E0231A619A61704700000020FE
:10114000020000206048806940F00C005E49886120
:101150005E48006820F470005C490860084600683A
:1011600040F4401008600846006820F07060086095
:101170000846006840F0407008600846006820F0AB
:10118000704008600846006840F040500860081D44
:10119000006820F00F00091D08600846006840F054
:1011A000030008600846006820F0F0000860084668
:1011B000006840F0300008600846006820F4706065
:1011C00008600846006840F44070086008460068FF
:1011D00020F4704008600846006840F44050086001
:1011E0003B48006820F470403949086008460068B0
:1011F00040F4405008600846006820F47020086001
:101200000846006840F4403008603048006820F02C
:101210000F002E4908600846006840F0030008608F
:101220002B48001F006820F070602949091F0860E2
:101230000846006840F0006008600846006820F03A
:10124000704008600846006840F0004008600846AA
:10125000006820F0706008600846006840F0006098
:1012600008601B480830006840F4E07018490831F5
:1012700008601748001F006820F00F001449091F7C
:1012800008600846006840F00800086008460068EA
:1012900020F0F00008600846006840F08000086018
:1012A0000846006820F4706008600846006840F452
:1012B0000060086006480830006840F007000449F4
:1012C000083108607047000000100240000C014027
:1012D00004080140B848B9494860B94848607047B7
:1012E000B648006940F08000B44908617047B348CF
:1012F000C16801F0010008B10120704701F004004D
:1013000008B10220F9E701F0100008B10320F4E76A
:101310000020F2E770B5044600BFFFF7E8FF05467E
:10132000012D00D006E0012001F0DAFC601E84B23D
:10133000002CF2D100BF04B9FF25284670BD70B55E
:101340000546002445F6FF70FFF7E4FF0446C4B9E4
:101350009A48006940F002009849086108464561D2
:10136000006940F04000086145F6FF70FFF7D2FFCA
:101370000446012C05D09148006920F002008F49F5
:101380000861204670BD70B505460E46FF20FFF788
:10139000C1FF044694B98948006940F001008749BB
:1013A00008612E80FF20FFF7B5FF0446012C05D011
:1013B0008248006920F0010080490861204670BD24
:1013C00001460888704730B503460C461546002292
:1013D00007E01846FFF7F4FF24F812009B1C501C8E
:1013E00082B2AA42F5DB30BD2DE9F04105460E463A
:1013F0001746002407E036F814102846FFF7C3FF0D
:10140000AD1C601C84B2BC42F5DBBDE8F0812DE967
:10141000F05F80468A461746B8F1006F02D36948EC
:10142000804501D3BDE8F09FFFF754FFA8F1006BA2
:101430004FEA9B25CBF34809C9F50074A74200DCAD
:101440003C464DE04FF0006101EB85208A145E4977
:10145000FFF7B9FF00260BE009EB06005A4931F807
:1014600010004FF6FF71884200D003E0701C86B276
:10147000A642F1DB00BFA6421BDA4FF0006101EB90
:101480008520FFF75CFF002608E03AF8160006EB1F
:1014900009014D4A22F81100701C86B2A642F4DB05
:1014A0004FF0006101EB85208A144749FFF79CFF4C
:1014B00004E0224651464046FFF796FFA74200D17E
:1014C0000FE06D1C4FF000090AEB440AA044381BE2
:1014D00087B2B7F5007F02DD4FF4007400E03C46B0
:1014E000B0E700BFFFF7FCFE00BF9BE713B5044663
:1014F000012201A92046FFF78AFF1CBD10B54FF459
:101500008061324804F0FAFC4FF400722F493048F1
:10151000FFF759FF10BD30B504460025B4F5806FC4
:1015200014D24FF4007229492948FFF74CFF04F008
:10153000010020B96008254911F8105006E0600844
:10154000224931F8100000F47F400512284630BDD2
:1015500070B504460D46B4F5806F2CD204F001003E
:1015600090B96008194931F8100000F47F40610813
:10157000164A22F811006008114631F8100028437D
:10158000610822F8110010E06008104911F81000FD
:1015900061080E4A22F811006008114631F8100067
:1015A00040EA0520610822F811004FF40072074953
:1015B0000748FFF72CFF70BD23016745002002405C
:1015C000AB89EFCD000001082C0400202C00002086
:1015D00000FC000810B50F48C06940F006000D4936
:1015E000C8610D48008840F001000B4908800223C3
:1015F0001D2219460120FFF7B1FC0848008840F081
:1016000001000649088002231E2201210020FFF765
:10161000A5FC10BD001002400C0400400C08004066
:101620001FB504461B48806940F0040019498861D1
:101630000846806940F4804088611748006820F4BB
:101640007F60154908600846006840F40B60086038
:1016500000940020ADF80400ADF80600ADF80800D5
:10166000ADF80C000C20ADF80A0069460B48FFF7F6
:101670005AFA012240F225510848FFF7CEFA022318
:10168000252203210846FFF769FC01210348FFF7E3
:10169000B8FA1FBD001002400408014000380140A4
:1016A00010B5012206210020FFF7A0FC012207212E
:1016B0000020FFF79BFC012208210020FFF796FC89
:1016C0000223172200210846FFF748FC01220021CF
:1016D0000846FFF78BFC0223062200210846FFF78D
:1016E0003DFC012211460020FFF780FC0223072267
:1016F00000210846FFF732FC012202210020FFF7FB
:1017000075FC0223082200210846FFF727FC10BDC4
:1017100008200B490860704710200949086070478D
:101720004FF480600649086040000860400008608F
:1017300040000860400008604000086070470000FA
:1017400014040140FE4890F8280000F0040030B175
:10175000FC48006840F40060FA49086005E0F94878
:10176000006820F40060F7490860F74840780328D3
:101770000ED1F348007EF5490870F148407B801E89
:10178000F3490870F348008840F00100F1490880EF
:10179000704710B5EF48008820F00100ED4908803F
:1017A000E74890F83C00FF2804D1E748807800F033
:1017B0002000B8B1E24991F83C0001F085FAE04818
:1017C00090F8280000F0040030B1DE48006820F4F2
:1017D0000060DC49086005E0DA48006840F4006019
:1017E000D849086010BDDC488069DB494969084474
:1017F000D949886108468069D849884206D9D648BF
:101800008069401AD4498861012070470020FCE7B4
:1018100030B50246B2F5803F03D291B201230846AB
:1018200026E0B2F5002F04D2C2F3CF010823C8008E
:101830001EE0B2F5800F04D2C2F38F11402388015D
:1018400016E0B2F1807F05D2C2F30F214FF480730E
:1018500008020DE0B2F1806F05D2C2F38F214FF480
:101860008063880204E04FF6FF714FF480638802C2
:101870004C1EB84D2C352C8003EBC304C4F34E042E
:10188000641E2D1F2C8030BD70B50446B4F5487F12
:1018900001D24FF448744FF48750B0FBF4F0B049D4
:1018A00000FB01F52846FFF7B3FFAB49486170BD67
:1018B00010B50024A7481030008800F0010000286F
:1018C0007BD0A848007800B110BDA048007800F097
:1018D000200434B99B48006820F48070994908605E
:1018E00005E09848006840F4807096490860974881
:1018F000007800F0400434B99248006820F4007089
:101900009049086005E08F48006840F400708D49F8
:1019100008608E48007800F0800434B98948006877
:1019200020F480608749086005E08648006840F43C
:101930008060844908608548007800F0040434B968
:101940008048006820F020007E49086005E07D485E
:10195000006840F020007B4908607C48007800F077
:10196000080434B97748006820F0400075490860E1
:1019700005E07448006840F0400072490860734810
:10198000007800F0100434B96E48006820F0800040
:101990006C49086005E06B48006840F080006949C8
:1019A00008606A48007800F020043CB96548006887
:1019B00020F480706349086006E0D6E16148006861
:1019C00040F480705F4908606048007800F040048F
:1019D00034B95C48006820F400705A49086005E09A
:1019E0005848006840F4007056490860574800782D
:1019F00000F0800434B95348006820F480605149F5
:101A0000086005E04F48006840F480604D49086078
:101A10004F480078401E544908804720091F08801D
:101A200051482C38008840F001004F492C3908807B
:101A300001204C490870FEF7DEFE4C48006870BB80
:101A400003F028FF494908600846006840B33E4853
:101A5000407803280AD108460068806A3E49C86178
:101A6000C869FFF711FF42483B4988613F48006859
:101A7000006B00EB6000384908623C480068006970
:101A80004010404208600846006848600846006808
:101A90008860364800680069C8600020086107E077
:101AA000FFF777FE2848807840F0040026498870C8
:101AB0002E48006800287DD02C4800680078234913
:101AC000087025480068294909684968084422497E
:101AD00008600846006800281CDD1C48007840F0BB
:101AE00004001A4908701C4800681B49C968401A5C
:101AF000194908601548007800F0200028B1124804
:101B00004068401E1049486004E00F484068401C8F
:101B10000D494860104840681449096889680844BC
:101B20000D49486008464068002837DD07480078BE
:101B300040F008000549087007484068064919E068
:101B4000580900200C0C014018000020090000205A
:101B500008000020000400402C08002000F91500B7
:101B600040420F000A0000202C0800400400002022
:101B700080FC0A00C968401AFE494860FE480078A7
:101B800000F0400028B1FD488068401EFB49886095
:101B900004E0FA488068401CF8498860F54880688D
:101BA000F7490968C9680844F249886008468068AE
:101BB000002800E040E01CDDEF48007840F0100015
:101BC000ED490870EB488068EA49C968401AE9495C
:101BD0008860E948007800F0800028B1E748C068D4
:101BE000401EE649C86004E0E448C068401CE34980
:101BF000C860E0480069401CDE4908610846006989
:101C0000DF4909680969884279D2DC4840780428AC
:101C10001FD1FFF7E8FD00280ED0D648C069D8498B
:101C20000968096B884208D8FFF7B3FDD34880786C
:101C300040F00400D14988708DE0CE48C069D04999
:101C40000968096B401ACB49C861C869FFF71CFED7
:101C500081E0C8480069CA490968496B88421CD2BA
:101C6000FFF7C1FD002876D0C248C069C4490968A1
:101C7000096B0844BF49C8610846C069C049096882
:101C8000C96B884204D3BE480068C06BB949C861BB
:101C9000B849C869FFF7F8FD5DE0B6480069B84982
:101CA0000968896B884241D3B2480069B449096820
:101CB000896B884211D1AF48C069B1490968C96BC5
:101CC000884203D1AF48AB49886144E0A9488069A4
:101CD000AD49081AA74988613DE0FFF784FD20B3AC
:101CE000A448C069A349096A884209D9A148C069C2
:101CF000A3490968096B401A9E49C86105E025E0BF
:101D00009C48C06940089B49C8619A48C0699C4981
:101D10000968C96A884204D299480068C06A95492E
:101D2000C8619449C869FFF7AFFD14E09148C069E4
:101D300093490968C96B88420DD091480068C06B0F
:101D40008C49C861C869FFF79FFD04E000208C49F9
:101D5000086003F091FD8D48007E8749097848406E
:101D60008549087000208A4908708A48008820F058
:101D700001008849088000BFA6E50020864909883F
:101D800001F0010100293DD08049097E01F00400E5
:101D900030B98249096821F02001804A116005E0CC
:101DA0007E49096841F020017C4A11607749097E2B
:101DB00001F0080030B97949096821F04001774AFB
:101DC000116005E07549096841F04001734A1160EE
:101DD0006E49097E01F0100030B97049096821F0A0
:101DE00080016E4A116005E06C49096841F080018C
:101DF0006A4A116068491039098821F00101664A70
:101E0000103A11806449098821F00101624A118069
:101E1000704710B52421574804F092F84FF44870E9
:101E2000FFF732FD0020564908605949087010BD7F
:101E300010B500245548007E00F0040434B957481A
:101E4000006820F020005549086005E0534800680C
:101E500040F02000514908604C48007E00F0080422
:101E600034B94E48006820F040004C49086005E055
:101E70004A48006840F04000484908604348007EF6
:101E800000F0100434B94548006820F08000434950
:101E9000086005E04148006840F080003F49086064
:101EA0003A48007E00F0200434B93C48006820F431
:101EB00080703A49086005E03848006840F4807056
:101EC000364908603148007E00F0400434B9334898
:101ED000006820F400703149086005E02F48006870
:101EE00040F400702D4908602848007E00F080040E
:101EF00034B92A48006820F480602849086005E069
:101F00002648006840F4806024490860FFF71AFC06
:101F1000FFF73FFC10BD00B518484078022804D1F7
:101F2000032016494870FFF70DFC00BD13484078A8
:101F3000032804D104201149487000200874704718
:101F400010B50F48006858B30D4909680969094A76
:101F50001269881A03F09FFF00200649C861C8690A
:101F6000FFF792FC074803498861002008610220BE
:101F7000024916E02C08002009000020180000206B
:101F80000400002080FC0A0000F915005809002018
:101F90000A00002010040040100800400C0C014012
:101FA00001E0487002E000200149487010BD0000C7
:101FB00018000020704770B505464C480078401C5A
:101FC000C4B2402C00D1002405E04948807800F0DC
:101FD000100000B170BD474800788442F5D04648F3
:101FE00042490978455441480470012240F2277162
:101FF0004248FEF712FE00BFECE741480178414835
:102000000078884201D1FF2070473F48425C481C5D
:10201000C1B2802900D10021394801701046F3E790
:102020003848007836490870704770B540F225513D
:102030003248FEF7A5FE002838D03048001D008841
:10204000C5B2182D1BD0212D12D03F2D02D07E2DD0
:1020500018D106E02648807840F0010024498870B5
:1020600022E02348807840F00200214988701BE07C
:102070001F48807840F008001D49887014E002F085
:10208000F7FA11E01F480078401CC4B2802C00D140
:1020900000241B480078844205D01B481949097860
:1020A00045541848047000BF00BF00BF40F22771BC
:1020B0001248FEF771FEC0B10E4804780E48005D6C
:1020C0000E49091D0880601CC4B2402C00D10024B8
:1020D0000848047005480078844205D1002240F287
:1020E00027710648FEF799FD00BF70BD0D00002066
:1020F000180000200E000020D00800200038014009
:102100000C0000200B00002050080020F74890F839
:10211000280000F0080030B1F548006840F4E07095
:10212000F349086005E0F248006820F4E070F049E7
:102130000860704710B5EF48407806280CD0ED488D
:10214000807800F0200038B902F092FAE9488078EF
:1021500040F04000E7498870E5481430006840F4DA
:10216000E070E3491431086010BD2DE9FF4F93B0D2
:10217000044600200F9010901190129004F001007E
:1021800090B10F98401CC0B20F90D849086805F074
:1021900099FD0022D84BCDE9040104F06FFFCDE991
:1021A000060105F0EBF9109004F0020090B10F98D1
:1021B000401CC0B20F90CD49486805F083FD002255
:1021C000CD4BCDE9040104F059FFCDE9060105F03E
:1021D000D5F9119004F0040090B10F98401CC0B2E2
:1021E0000F90C249886805F06DFD0022C24BCDE911
:1021F000040104F043FFCDE9060105F0BFF9129098
:10220000DDE91101884201D9119800E01298109976
:10221000884201D2109806E0DDE91101884201D917
:10222000119800E0129883460F9805F0EBF9CDE97C
:10223000000104F0CBFECDE90401584605F0E2F9B7
:10224000CDE90201DDE9042304F0D4FFCDE9060164
:1022500004F0E2FE0E90A548016A0E9805F05EFFBC
:10226000A649029005F0C8FD039005F02BFDCDE9CD
:10227000040104F0D3FBCDE9060105F07FF90C90D1
:102280000F9805F0BFF9CDE9000104F09FFECDE9FC
:102290000401169805F016FDCDE90201DDE90423DD
:1022A00005F000FACDE9060104F0B6FE1690169985
:1022B0000E9805F033FF01460290914805F09CFD11
:1022C000039005F0FFFC00228B4BCDE9040104F0E4
:1022D000D5FECDE9060105F051F90546894EAE421D
:1022E00000D92E468148007E0D90804890F8290044
:1022F00000F0E0000D9948400D90149818B90D9821
:1023000080F0E0000D904FEA5B00C0F10008C1468C
:10231000C2467648407B301A0B9000200A9042F269
:102320001070099000BF0D98089077480068C0F3BE
:10233000801047EA400774480068C0F3C01047EABD
:10234000800771480068C0F3002047EAC00715986D
:1023500008B187F00E0704F0010080B110988044A6
:10236000B8F1000F0BDD07F0020020B1089880F0F3
:102370000400089001E024F00104A8EB0B0804F02D
:10238000020080B111988144B9F1000F0BDD07F014
:10239000040020B1089880F00800089001E024F0C3
:1023A0000204A9EB0B0904F0040080B112988244E6
:1023B000BAF1000F0BDD07F0080020B1089880F09B
:1023C0001000089001E024F00404AAEB0B0A24B1E9
:1023D0004848807800F0100010B117B0BDE8F08FC9
:1023E000002030B14948006820F0200047490860CB
:1023F00005E04648006840F020004449086000209D
:1024000030B14248006820F040004049086005E0D3
:102410003E48006840F040003C490860002030B170
:102420003A48006820F080003849086005E03748E5
:10243000006840F0800035490860002030B1334822
:10244000006820F480703149086005E02F4800687A
:1024500040F480702D490860002030B12B4800689E
:1024600020F400702949086005E02848006840F41D
:10247000007026490860002030B12448006820F42C
:1024800080602249086005E02048006840F48060D0
:102490001E4908601549487B00F022FC002030B13D
:1024A0001A48006820F020001849086005E0174825
:1024B000006840F0200015490860002030B1134842
:1024C000006820F040001149086005E00F480068EE
:1024D00040F040000D4908600020C8B10B4800687A
:1024E00020F080000949086018E000005809002029
:1024F00000040140180000200000E03F00803B4540
:10250000C0E1644CF8240100080801400C0C0140B3
:102510004C48006840F080004A490860002030B113
:102520004848006820F480704649086005E0454846
:10253000006840F4807043490860002030B1414891
:10254000006820F400703F49086005E03D480068DD
:1025500040F400703B490860002030B13948006801
:1025600020F480603749086005E03648006840F490
:10257000806034490860002030B13248006820F49F
:1025800000603049086005E02E48006840F40060B3
:102590002C4908600B9800F0A3FBAE427FF6C3AE57
:1025A00009983044099044F6206109988842F5D989
:1025B0000998401A09900C990A9808440A902249EF
:1025C0000A98B1FBF0F6AE4200D22E461F48407B7F
:1025D000301A0B90A7E610B5FFF7B4F81B4800229D
:1025E0000121036B0420FFF7C0FD184800220121E0
:1025F000036B0320FFF7B9FD1449888E00F064FBDC
:10260000022417E0114801220021C36A0720FFF7C6
:10261000ACFD0E49888E00F057FB002C0ADD0B48FC
:1026200000220121C36A0720FFF79FFD0749888E1A
:1026300000F04AFB2000A4F101014CB2E2D1FFF707
:10264000A8F810BD0C0C0140008793035809002026
:102650000020FA490870FA490870704710B5FFF772
:10266000F7FF00F068FC10BD70B5002416E0F549D6
:10267000204601F09DFB18B90A2000F0CDFB0BE0CD
:10268000F048007840B1EF4801F04AFAED4802F016
:10269000A4F8054600F0C0FB601CC4B2022CE6DBC7
:1026A00070BD10B50A2000F00FFBE748006800F08D
:1026B000010008B901F0DCFF0120E449086010BD09
:1026C00010B50A2000F000FBDF480068C0F34000AE
:1026D00010B96120FFF76FFC0220DC49086010BDD3
:1026E00010B50A2000F0F0FAD7480068C0F3800067
:1026F00028B9D748807840F00200D5498870042076
:10270000D249086010BD10B5D1488078002865D046
:10271000CF48847804F0600020B30620CC4948708C
:1027200004F04000A0B14FF0FF3000F0C3FB0120E7
:1027300000F0DCFBC648807820F01000C4498870A7
:1027400000BFC348807800F010000028F9D003E0F3
:102750006FF0010000F0AEFBBD48807820F0600013
:10276000BB49887004F0100018B10120B849087006
:1027700010BD04F0010038B101F030F8B4488078A1
:1027800020F00100B249887004F0080038B1FFF76A
:10279000CDFBAF48807820F00800AD49887004F088
:1027A000040038B1FFF7CCFBA948807820F0040082
:1027B000A749887004F0020080B1FFF7ACFBA54880
:1027C00090F8280000F0020010B10120A049087420
:1027D0009F48807820F002009D49887000BFC7E7BD
:1027E000FEB50446012002900025207824286ED1F1
:1027F0009DF80800205C47282AD007DC68B1232810
:102800001AD024280CD0432877D12DE048285FD057
:102810004E2879D05828F7D145E000F091FBDBE055
:102820009DF80800401CC0B20290205C08B1032053
:10283000FEBD00F08AFBCFE09DF80800401CC0B24E
:102840000290205C08B10320F2E700F04CFEC3E0E8
:102850009DF80800401CC0B20290205C08B1032023
:10286000E6E700F0DEFEB7E09DF80800401CC0B2CD
:102870000290205C08B10320DAE775484078072809
:1028800005D101F0F5FE052000F030FB0AE07048AC
:10289000407808B10B20CBE707206D494870042031
:1028A00000F024FB98E09DF80800401CC0B20290A4
:1028B000205C08B10320BBE765484078062805D1B5
:1028C000032000F013FB00206149487084E086E09B
:1028D000604890F8280000F0100090B15C48407803
:1028E00018B15B484078062809D101F047FE5848E6
:1028F000007840B9FFF7B8FE05E022E004E00B20C5
:1029000096E7072094E767E09DF80800401CC0B2F6
:102910000290205C98B900250EE02146284601F07F
:1029200047FA18B90A2000F077FA03E02146284652
:1029300000F03FFF681CC5B2022DEEDB4CE0012524
:1029400000BF01AA02A9204600F01EF908B9012023
:102950006EE79DF80810481CC0B20290605C3D28EC
:1029600001D0032064E70DB39DF8085000BF9DF827
:102970000800205C9DF80810491B60549DF8081061
:10298000481CC0B20290605C0028F0D1204601F0E3
:1029900024FF05460DB128464AE7019805F03EFBA5
:1029A000C5B22146284601F0A1F915E06A4602A900
:1029B000204600F0E9F808B9012039E79DF8080041
:1029C000205C08B1032033E7019805F00BFB0646B5
:1029D000009901F042FA2BE700BF002028E72046CB
:1029E00001F0FBFE24E770B562E00A2C01D00D2C4B
:1029F0001AD1FFF788FE1648007800B170BD0F4865
:102A0000007800280ADD00210E480C4A1278815413
:102A1000FFF7E6FE054600F0FFF902E0002000F0B7
:102A2000FBF9FFF715FE43E005480078A0B1292C1B
:102A30003ED10020024908703AE000000F0000205B
:102A40001000002010090020080801401404014073
:102A50001800002058090020202C29DD2F2C27D019
:102A6000282C03D101201649087021E01548007870
:102A7000452805DB0D2000F0CFF9FFF7E9FD17E051
:102A8000612C0DDB7A2C0BDCA4F12000C1B20D48C7
:102A900002780078401C0B4B18700B48815407E0FB
:102AA000084801780078401C064A107006484454D3
:102AB000FFF7A3FA0446FF2897D100BF9EE7000066
:102AC000100000200F0000201009002018480068A6
:102AD00020F4006016490860704700B500201549D1
:102AE0000870FFF7F3FF00BD10B5044611480078E9
:102AF00084421CD002F0E6FEACB1002C06DD0C488E
:102B0000006820F480500A49086005E00848006821
:102B100040F48050064908600548006840F40060B1
:102B20000349086001E0FFF7D1FF02490C7010BDB6
:102B30000C080140110000201148006820F001003D
:102B40000F490860704700B500200E490870FFF774
:102B5000F3FF00BD10B504460A48007884420ED049
:102B600002F0B0FE012C06D10548006840F00100DB
:102B70000349086001E0FFF7DFFF0248047010BD61
:102B80000C0C0140120000202DE9F04F87B0804668
:102B90008946924699F8000000EB08040020069050
:102BA000059000258346049014F8016B2D2E04D166
:102BB0000120069014F8016B03E02B2E01D114F8CC
:102BC000016B25E0A6F13000C6B2092E16DC0BF130
:102BD000010000F0FF0BBBF1080F0ADC049808B1FC
:102BE000681E45B2059800EB800006EB400005909A
:102BF0000CE0049850B9681C45B207E0FE2E04D1E1
:102C0000049810B90120049000E002E014F8016B70
:102C1000D8E700BFBBF1000F03D1002007B0BDE82B
:102C2000F08F059805F032FA07460021384605F086
:102C3000A5F939D00FE0384605F044F8404A414B39
:102C4000CDE9000104F02EFDCDE9020104F0E4F924
:102C50000746A81C45B215F1020FECDD002D0EDA77
:102C6000384605F02FF8384A384BCDE9000104F01A
:102C700019FDCDE9020104F0CFF9074614E0002D5B
:102C800012DD00BF384605F01DF80022304BCDE9BB
:102C9000000104F007FDCDE9020104F0BDF907468B
:102CA000681E40B2051EEDDC069820B187F000409A
:102CB000CAF8000001E0CAF80070A4EB0800401E4A
:102CC00089F800000120A9E710B5044602E00120C0
:102CD000FEF718FA2000A4F101018CB2F7D110BD63
:102CE00010B504461AE00A2C04D20120FEF7EEF9D2
:102CF000641E13E0642C04D20A20FEF7E7F90A3CB4
:102D00000CE0B4F57A7F04D26420FEF7DFF9643C6E
:102D100004E00120FEF7F6F9A4F57A74002CE2D164
:102D200010BD10B50B4BDA689968586803F0AEF81F
:102D3000084BDA689968586801F0E5FC10BD00009E
:102D40007B14AE47E17A843F9A9999999999B93F52
:102D5000000024401800002070B50446FDF747FD30
:102D60002046FEF7D8FB0546FDF745FD284670BD19
:102D700070B504460D46FDF73AFD29462046FEF79C
:102D8000E7FBFDF738FD70BD2DE9F04107460C4625
:102D90001646002511E0680008B9E81108B10120C5
:102DA00000E00020054620782844C5B214F8011B35
:102DB00038467F1CFFF7DCFF761E002EEBD129463C
:102DC0003846FFF7D5FFBDE8F0812DE9F041064612
:102DD0000F469046002512E038467F1CFFF7BCFFE7
:102DE0000446680008B9E81108B1012000E000209D
:102DF00005462819C5B206F8014BA8F10108B8F13B
:102E0000000FE9D13846FFF7A7FFA84202D1012001
:102E1000BDE8F0810020FBE710B504461CB99FA077
:102E200000F089FE45E09FA000F085FE0E2C3CD20C
:102E3000DFE804F03B070B0F13171B1F23272B2F73
:102E400033379AA000F077FE2FE09DA000F073FECC
:102E50002BE0A1A000F06FFE27E0A5A000F06BFE24
:102E600023E0A7A000F067FE1FE0ABA000F063FE28
:102E70001BE0AEA000F05FFE17E0B1A000F05BFE2B
:102E800013E0B2A000F057FE0FE0B4A000F053FE34
:102E90000BE0BBA000F04FFE07E0BDA000F04BFE32
:102EA00003E0BEA000F047FE00BF00BFBFA000F0DF
:102EB00042FE10BD10B50446BDA000F03CFE14F16A
:102EC000020F06D0B4F1FF3F07D1BBA000F033FEE4
:102ED00003E0BCA000F02FFE00BF00BFBEA000F0CA
:102EE0002AFE4FF4FA70FFF7EFFE10BD10B504464E
:102EF000BCA000F020FE062C18D2DFE804F0170377
:102F0000070B0F13B8A000F016FE0FE0BBA000F0F7
:102F100012FE0BE0BEA000F00EFE07E0C1A000F024
:102F20000AFE03E0C1A000F006FE00BF00BFC2A081
:102F300000F001FE10BD10B5C0A000F0FCFD10BDFA
:102F400010B5C64800F0F7FD10BD10B5C4A000F0E4
:102F5000F2FDC449086800F046FEC3A000F0EBFD96
:102F6000C049486800F03FFEC4A000F0E4FDBD4940
:102F7000886800F038FEC6A000F0DDFDB949487B46
:102F800000F025FEC7A000F0D6FDB649086900F0A4
:102F90002AFECBA000F0CFFDB249486900F023FE25
:102FA000CFA000F0C8FDAF49087E00F010FED4A00D
:102FB00000F0C1FDAB49087E00F0CAFDD8A000F0CA
:102FC000BAFDA84991F83C0000F001FED6A000F03F
:102FD000B2FDA449086ADC4904F00EFF044600F083
:102FE00002FEDAA000F0A7FD9E49486A00F0FBFD52
:102FF000DEA000F0A0FD9B49C86900F0F4FDE3A04D
:1030000000F099FD974991F83E0000F0E0FDE6A040
:1030100000F091FD934991F83D0000F0D8FDEAA041
:1030200000F089FD8F4991F8281001F0010000F0AF
:10303000CEFDECA000F07FFD8A4991F82810C1F385
:10304000400000F0C4FDEFA000F075FD854991F847
:103050002810C1F3800000F0BAFDF1A000F06BFD74
:10306000804991F82810C1F3C00000F0B0FDF5A030
:1030700000F061FD7B4991F82810C1F3001000F0C9
:10308000A6FDF7A000F057FD764991F8290000F061
:103090009EFDFAA000F04FFD00E200006F6B0D0AEC
:1030A000000000006572726F723A20004261642075
:1030B0006E756D62657220666F726D6174000000DE
:1030C000457870656374656420636F6D6D616E64CF
:1030D000206C657474657200556E737570706F72D4
:1030E0007465642073746174656D656E74000000AE
:1030F000496E76616C696420726164697573000061
:103100004D6F64616C2067726F75702076696F6CAB
:103110006174696F6E000000496E76616C696420AD
:1031200073746174656D656E74000000536574742A
:10313000696E672064697361626C656400000000F9
:1031400056616C7565203C20302E300056616C75E0
:1031500065203C203320757365630000454550525F
:103160004F4D2072656164206661696C2E20557335
:10317000696E672064656661756C74730000000099
:1031800042757379206F72207175657565640000F2
:10319000416C61726D206C6F636B00004C696E65F1
:1031A000206F766572666C6F770000000D0A000074
:1031B000414C41524D3A200048617264206C696D67
:1031C0006974000041626F727420647572696E6781
:1031D000206379636C6500002E204D506F733F0DA6
:1031E0000A0000005B000000526573657420746F74
:1031F00020636F6E74696E75650000002724482790
:103200007C2724582720746F20756E6C6F636B00C9
:1032100043617574696F6E3A20556E6C6F636B65B0
:1032200064000000456E61626C656400446973610E
:10323000626C6564000000005D0D0A000D0A4772B3
:10324000626C20302E3863205B27242720666F7243
:103250002068656C705D0D0A00000000E0860008C3
:1032600024303D00580900202028782C20737465F4
:10327000702F6D6D290D0A24313D00002028792C16
:1032800020737465702F6D6D290D0A24323D000086
:1032900020287A2C20737465702F6D6D290D0A24F7
:1032A000333D00002028737465702070756C736561
:1032B0002C2075736563290D0A24343D000000003D
:1032C000202864656661756C7420666565642C20D1
:1032D0006D6D2F6D696E290D0A24353D00000000CB
:1032E000202864656661756C74207365656B2C209D
:1032F0006D6D2F6D696E290D0A24363D00000000AA
:1033000020287374657020706F727420696E766502
:103310007274206D61736B2C20696E743A0000002A
:10332000290D0A24373D0000202873746570206938
:10333000646C652064656C61792C206D736563290C
:103340000D0A24383D00000000006145202861631B
:1033500063656C65726174696F6E2C206D6D2F737F
:1033600065635E32290D0A24393D000020286A7504
:103370006E6374696F6E20646576696174696F6EDF
:103380002C206D6D290D0A2431303D0020286172FA
:10339000632C206D6D2F7365676D656E74290D0A42
:1033A0002431313D0000000020286E2D6172632021
:1033B000636F7272656374696F6E2C20696E742915
:1033C0000D0A2431323D000020286E2D64656369AA
:1033D0006D616C732C20696E74290D0A2431333DA4
:1033E0000000000020287265706F727420696E639F
:1033F0006865732C20626F6F6C290D0A2431343D8F
:103400000000000020286175746F2073746172746D
:103410002C20626F6F6C290D0A2431353D000000AD
:103420002028696E76657274207374657020656EED
:1034300061626C652C20626F6F6C290D0A24313635
:103440003D000000202868617264206C696D697419
:10345000732C20626F6F6C290D0A2431373D0000F8
:103460002028686F6D696E67206379636C652C2016
:10347000626F6F6C290D0A2431383D002028686F77
:103480006D696E672064697220696E76657274205A
:103490006D61736B2C20696E743A0000F34991F8EA
:1034A000290000F055FBF2A000F045FBEF49C86A87
:1034B00000F099FBF0A000F03EFBEC49086B00F037
:1034C00092FBF5A000F037FBE849888E00F07FFB07
:1034D000F9A000F030FBE549886B00F084FBFEA00A
:1034E00000F029FB10BD2DE9FE4F4FF0000964E00C
:1034F0006946484600F075FC20B90A20FFF78CFCAD
:10350000BDE8FE8FFBA000F016FBB9F1080F25D235
:10351000DFE809F004080C1014181C20F6A000F0D5
:103520000AFB1BE0F5A000F006FB17E0F4A000F09A
:1035300002FB13E0F3A000F0FEFA0FE0F2A000F0AF
:10354000FAFA0BE0F1A000F0F6FA07E0F0A000F0C4
:10355000F2FA03E0EFA000F0EEFA00BF00BF002493
:1035600025E0C24890F8280000F0010078B15DF82D
:10357000240004F0A7FB0746E74AE84B04F092F862
:10358000054603F049FD824600F02DFB03E05DF89F
:10359000240000F028FB022C03DAE1A000F0CBFAB3
:1035A00003E0AFF26C3000F0C6FA601CC4B2032C2A
:1035B000D7DB09F1010000F0FF09B9F1070F97DD32
:1035C000D8A000F0B8FA002427E0A84890F8280016
:1035D00000F0010080B1D54951F8240004F072FBDD
:1035E0000546CD4ACD4B04F05DF8074603F014FDC7
:1035F000824600F0F8FA04E0CC4951F8240000F0CB
:10360000F2FA022C03DAC6A000F095FA03E0AFF25A
:10361000D83000F090FA601CC4B2032CD5DB00BF98
:103620006EE72DE9F041C1482C384078052818D2C2
:10363000DFE800F003070B0F1300BDA000F07BFADA
:103640000FE0BCA000F077FA0BE0BBA000F073FA2B
:1036500007E0BAA000F06FFA03E0B9A000F06BFA3F
:1036600000BF00BFB8A000F066FAB0492C39097F4E
:1036700001F1360000F0ABFAAC482C38407E60B95E
:10368000AA482C38807E012803D1B0A000F053FA5C
:1036900006E0B0A000F04FFA02E0B0A000F04BFA54
:1036A000A2482C38C07818B1AEA000F044FA02E06D
:1036B000AEA000F040FA9D482C38007918B1ADA0BA
:1036C00000F039FA02E0ADA000F035FA97482C3846
:1036D000807818B1ABA000F02EFA02E0ABA000F0A9
:1036E0002AFA92482C38407920B1012806D00228C5
:1036F0000CD107E0A7A000F01EFA07E0A6A000F09A
:103700001AFA03E0A5A000F016FA00BF00BF874830
:103710002C3890F90600B0F1FF3F06D048B10128DF
:103720000BD19FA000F007FA07E09EA000F003FA7B
:1037300003E09DA000F0FFF900BF00BF7B482C38DC
:10374000C07910B1012808D103E098A000F0F3F986
:1037500003E097A000F0EFF900BF00BF95A000F0D4
:10376000EAF972492C39087E00F031FA92A000F093
:10377000E2F96E482C38C07880B16C492C398868E1
:1037800004F0A0FA0746644A644B03F08BFF054639
:1037900003F042FC044600F026FA04E063492C39A9
:1037A000886800F020FAAFF2705000F0C4F9BDE86C
:1037B000F08170B505460C4680A000F0BCF92846A3
:1037C00000F005FAAFF2844000F0B5F9204600F0B1
:1037D000A7F9AFF2286000F0AEF970BD2DE9F04F07
:1037E00089B0774A50689168D26805AB07C37448BE
:1037F0004078082821D2DFE800F00420080C1014DB
:10380000181C70A000F097F917E070A000F093F971
:1038100013E070A000F08FF90FE070A000F08BF9BA
:103820000BE070A000F087F907E070A000F083F9CA
:1038300003E070A000F07FF900BF00BF6FA000F0B0
:103840007AF94FF0000AFEE005A951F82A0004F0C9
:1038500005FC0446054850F82A10204604F0CCFA2E
:1038600002A941F82A000148CCE0000058090020D4
:10387000290D0A2431393D002028686F6D696E6773
:1038800020666565642C206D6D2F6D696E290D0AAB
:103890002432303D000000002028686F6D696E679B
:1038A000207365656B2C206D6D2F6D696E290D0A77
:1038B0002432313D000000002028686F6D696E677A
:1038C000206465626F756E63652C206D7365632976
:1038D0000D0A2432323D00002028686F6D696E6742
:1038E0002070756C6C2D6F66662C206D6D290D0A2D
:1038F000000000005B47000035343A0035353A00DF
:1039000035363A0035373A0035383A0035393A001D
:1039100032383A0033303A006568E1575128A43F05
:103920002C0000005B4739323A000000C409002037
:103930005B4730005B4731005B4732005B47330039
:103940005B47383000000000204700002047313737
:1039500000000000204731380000000020473139C6
:1039600000000000204732300000000020473231C4
:1039700000000000204739300000000020473931A6
:103980000000000020473933000000002047393490
:1039900000000000204D3000204D3100204D32004D
:1039A000204D3300204D3400204D3500204D39008E
:1039B000204D38002054000020460000244E000016
:1039C000180000203C49646C650000003C5175659E
:1039D000756500003C52756E000000003C486F6C3D
:1039E000640000003C486F6D650000003C416C6164
:1039F000726D00003C436865636B00002C4D506F96
:103A0000733A000090F8280000F0010070B151F8FE
:103A10002A0004F057F906463A4A3B4B03F042FEAF
:103A2000044603F0F9FA02A941F82A0002A951F864
:103A30002A0000F0D8F8AFF2181000F07CF80AF174
:103A4000010000F0FF0ABAF1020F7FF7FDAE2FA0D0
:103A500000F071F84FF0000A4BE02E4890F8280073
:103A600000F0010018B32C4A52F82A100C3A52F810
:103A70002A0004F053F9834604F024F98046214AD1
:103A8000214B03F00FFE06460F4602A951F82A000B
:103A900004F018F932463B46CDE9000104F028F85D
:103AA000044603F0B9FA02A941F82A0011E01A4AC3
:103AB00052F82A100C3A52F82A0004F02FF9044662
:103AC00002A850F82A10204604F025FC02A941F86B
:103AD0002A0002A951F82A0000F085F8BAF1020F75
:103AE00003DAAFF2C41000F026F80AF1010000F08A
:103AF000FF0ABAF1020FB0DD08A000F01CF809B00F
:103B0000BDE8F08F6568E1575128A43F57506F73A7
:103B10003A00000058090020C40900203E0D0A00A8
:103B200010B5044603E014F8010BFEF744FA2078C0
:103B30000028F8D110BD70B50446002504E0665D8C
:103B40003046FEF738FA6D1C605D0028F7D170BD75
:103B50007CB50546002406E005F001000DF80400E0
:103B60006D10601CC4B2082CF6DB08E0611E1DF865
:103B700001103031C8B2FEF71EFA601EC4B2002C2C
:103B8000F4DC7CBD3EB5044600251CB93020FEF7B0
:103B900012FA3EBD0DE00A20B4FBF0F100FB11402B
:103BA000303029466A1CD5B20DF801000A20B4FB5A
:103BB000F0F4002CEFD106E0691E1DF80100FEF7BD
:103BC000FAF9681EC5B2002DF6DC00BFE1E710B5BA
:103BD0000446002C03DA2D20FEF7EDF9644220465E
:103BE000FFF7D0FF10BD2DE9FE4F83460021584658
:103BF00004F060FA04D22D20FEF7DDF98BF0004BC3
:103C0000364890F83DA008E03549584604F086FA59
:103C10008346AAF1020000F0FF0ABAF1020FF3DABC
:103C2000BAF1000F04D02F49584604F077FA8346C2
:103C3000584604F047F8074600222B4B03F01EFAC3
:103C4000054603F0E9F983460024584604F0CAF912
:103C500081462E20214991F83D100DF8010014E015
:103C60001E4890F83D00A04201D1601CC4B20A2059
:103C7000B9FBF0F100FB119030302146621CD4B248
:103C80000DF801000A20B9FBF0F9B9F1000FE7D1F6
:103C900005E030222046611CCCB20DF800200F4810
:103CA00090F83D00A042F4DC0C4890F83D00A042A2
:103CB00007D1601CC4B230222046611CCCB20DF882
:103CC000002006E0611E1DF80100FEF774F9601E79
:103CD000C4B2002CF6DCBDE8FE8F000058090020BD
:103CE0000000C842000020410000E03F70B50446DB
:103CF0000D46C4EBC40000EB841000F5407646226C
:103D000029463046FFF740F870BD70B504460D46B1
:103D100004EB840000EBC40000F500760C22294679
:103D20003046FFF731F870BD10B505210020FFF7D0
:103D30001FF84022ED490120FFF726F810BD10B50D
:103D4000044694B1EA48E9490860486088600A205E
:103D50004873E8480861E8484861E8480862E8486C
:103D6000C861C0200876E74848620020DF4981F832
:103D70002800084690F8280040F0020081F828004A
:103D8000002081F82900E048C862DA48086364200E
:103D900088864FF07E508863192081F83C0003200C
:103DA00081F83D00192081F83E00FFF7BDFF10BDEE
:103DB00070B505460C46C5EBC50000EB851000F557
:103DC0004076462231462046FEF7FFFF38B90020F4
:103DD000207021462846FFF789FF002070BD012092
:103DE000FCE770B505460C4605EB850000EBC50009
:103DF00000F500760C2231462046FEF7E6FF48B972
:103E0000002020606060A06021462846FFF77DFF0B
:103E1000002070BD0120FCE710B50020FEF79CFFDC
:103E20000446052C07D140220121B048FEF7CDFF02
:103E300088B9002010BD042C0BDC28220121AB48DE
:103E4000FEF7C3FF08B90020F4E70020FFF777FF73
:103E500001E00020EEE70120ECE72DE9F047814684
:103E60000C46B9F1170F77D2DFE809F00C0D0E1EE2
:103E70003336393F4E59646777869DB4CBE4F6F507
:103E8000F4F3F20000BF00BF204603F01BFF05461D
:103E90000022134603F0CAFB02D80820BDE8F087D1
:103EA000924840F8294001E19849204604F002F97F
:103EB00001D20920F2E7204603F004FF0746002262
:103EC000934B03F0DBF8054603F058FB8749487332
:103ED000ECE086480461E9E084484461E6E020467D
:103EE00004F09CF881490876E0E0204603F0EAFE01
:103EF00007460022864B03F0C1F8054603F03EFB5F
:103F00007A4981F83C00D1E08249204604F006F964
:103F10000546804904F002F974490862C6E020466B
:103F200003F0D0FE21F00041054603F075F86F491B
:103F30004862BBE06D48C461B8E0204603F0C2FEB1
:103F400007460022724B03F099F8054603F016FB72
:103F5000664981F83E00A9E0A6E0204603F0B2FEE3
:103F6000054600226A4B03F089F8074603F006FB7A
:103F70005E4981F83D0099E00021204603F0FEFFF4
:103F800008D05A4890F8280040F00100574981F8BD
:103F9000280007E0554890F8280020F00100534918
:103FA00081F8280082E00021204603F0E7FF08D0D6
:103FB0004E4890F8280040F002004C4981F8280053
:103FC00007E04A4890F8280020F00200474981F8AD
:103FD00028006BE00021204603F0D0FF08D04348C2
:103FE00090F8280040F00400404981F8280007E0DC
:103FF0003E4890F8280020F004003C4981F8280051
:1040000054E00021204603F0B9FF08D0374890F86B
:10401000280040F00800354981F8280007E03348BF
:1040200090F8280020F00800304981F82800FEF7B9
:104030006DF83BE00021204603F0A0FF0DD02B4897
:1040400090F8280040F01000284981F828000CE082
:1040500027E018E014E010E008E0244890F8280079
:1040600020F01000214981F828001FE0204603F0CD
:10407000D5FF1E4981F8290018E01C48C46215E0EC
:104080001A48046312E0204603F01CFE0546002295
:104090001F4B02F0F3FF074603F070FA13498886BE
:1040A00004E01248846301E00620F7E600BFFFF752
:1040B0003BFE0020F2E63EB5FFF7AEFE38B90A201F
:1040C000FEF7AAFE0120FFF73AFEFEF73EFF0024AE
:1040D00009E069462046FFF784FE10B90A20FEF782
:1040E0009BFE601CC4B2072CF3DD3EBD58090020C6
:1040F0000000544200007A430000FA4300A00C473D
:10410000CDCCCC3DCDCC4C3D0000C8410000404062
:104110000000E03F000070422DE9F84304460D46E0
:1041200016461F46DDF82080FE484078072801D15A
:10413000BDE8F88300BFFEF7E6FAFA48007800B160
:10414000F6E701F0B5FB0028F5D13B46324629469B
:104150002046CDF8008001F0C7FBF248407810B946
:104160000220F0494870EF48007C08B1FDF7D3FE0B
:1041700000BFDDE72DE9F04F9FB081460E461446A3
:104180001D46DDE9287854F8251059F8250003F07C
:10419000C5FD1D9054F8271059F8270003F0BEFD07
:1041A0001C9059F8281056F8280004F0BFF81B900E
:1041B00054F8250080F000401A9054F8270080F051
:1041C0000040199056F825001D9904F0AFF818909A
:1041D00056F827001C9904F0A9F817901799199818
:1041E00003F09CFF029018991A9803F097FF019032
:1041F000029903F093FD039003F064FDCDE90601FD
:10420000DDE9181003F08AFF029017991A9803F05D
:1042100085FF0190029904F089F8039003F052FDA4
:10422000CDE90401DDE9062302F038FBCDE9080100
:1042300002F0F2FE169000200C902D9898B100210B
:10424000169804F037F821D8169803F03BFDB64ACB
:10425000B64BCDE9060103F04BFCCDE9080102F0B5
:10426000DBFE169012E00021169803F023FF0DD814
:10427000169803F027FDAC4AAC4BCDE9060102F0DD
:10428000FDFECDE9080102F0C7FE16901B9803F071
:1042900019FD21F00041CDE906012C99169803F093
:1042A0003DFF039003F00EFDCDE90401DDE9062397
:1042B00002F0E6FCCDE9080102F0AEFE159015987B
:1042C00003F000FD00221346CDE9080103F0EAF8EF
:1042D00002D11FB0BDE8F08F9548C169159803F071
:1042E0008BFD059003F0EEFCCDE9060102F05AFCCF
:1042F000CDE9080103F042F980B214902B9838B14F
:10430000149803F0C3FE09902A9903F007FF2A903E
:10431000149803F0BBFE01460990169803F06CFD5B
:104320008246149803F0B2FE014609901B9803F0F0
:1043300063FD1390504603F0C5FCCDE904015046DF
:1043400003F0C0FC00227B4BCDE9000103F0AAF989
:10435000CDE90201DDE9042303F0A4F90022764B44
:10436000CDE9060103F0D2FACDE9080102F054FECE
:104370000B90CDF828A059F8280010A941F8280082
:104380004FF0010B9BE06A4890F83E100C98814278
:1043900022DD0B99199803F0C1FE09900A991A9829
:1043A00003F0BCFE0890099903F0B8FC0D900A993F
:1043B000199803F0B3FE09900B991A9803F0AEFE1A
:1043C0000890099903F0B2FF1A900D9819900C9873
:1043D000401C40B20C904DE0584603F057FE514649
:1043E000049003F09BFE059003F06CFCCDE9060100
:1043F00002F082FBCDE9080102F00EFE0E90584655
:1044000003F044FE5146049003F088FE059003F04B
:1044100059FCCDE9060102F081FDCDE9080102F069
:10442000FBFD0F9054F827000F9903F077FE0990D9
:1044300054F8250080F0004007900E9903F06EFEBE
:104440000890099903F06AFC1A9054F827000E9915
:1044500003F064FE099054F8250080F000400790B6
:104460000F9903F05BFE0890099903F05FFF199024
:1044700000200C901A991D9803F050FC10A941F8E7
:10448000250019991C9803F049FC10A941F8270050
:1044900051F82800139903F041FC10A941F82800B5
:1044A0002B9800902A9B10A807C8FFF735FE1D48DF
:1044B000007800B10DE70BF101001FFA80FB1498A2
:1044C0008345FFF660AF2B98009096E807002A9B83
:1044D000FFF722FE00BFFCE62DE9FC5F814617498D
:1044E000484603F01BFE824603F0ECFB074602F051
:1044F00059FB054603F042F884B201F0E3F932219A
:1045000004FB01F003F0AAFD0D490190484603F0B9
:1045100005FE0090019903F009FF834603F0D2FBEA
:1045200007460FE018000020182D4454FB211940C5
:10453000580900200000E03F0000F03F0000A041CB
:1045400000007A4402F02EFB054603F017F81FFA2C
:1045500080FA5046FEF7B8FB09E0FEF7D4F857485A
:10456000007808B1BDE8FC9F3220FCF7CBFD201E8F
:10457000A4F101018CB2F0DC00BFF3E72DE9F84FA4
:1045800005204E4948704E48006820F4E0704C49C0
:104590000860FEF720F8FEF7B6F84848007808B142
:1045A000BDE8F88F4548002141608160C160FEF799
:1045B000B8FB002041494870002426462546414862
:1045C00090F8290000F0200008B1012401E04FF02C
:1045D000FF343C4890F8290000F0400008B1012564
:1045E00001E04FF0FF35374890F8290000F08000D7
:1045F00008B1012601E04FF0FF36304603F02EFDF2
:1046000082463048816B504603F088FD07462846B5
:1046100003F024FD82462B48816B504603F07EFD5B
:104620008046204603F01AFD82462648816B50469C
:1046300003F074FD81460020009022483A4641462E
:10464000036B4846FFF768FDFDF765FC01F03AF99A
:10465000FEF767FB1B4890F8280000F0080028B11F
:104660001748006840F4E0701549086000BF97E7FC
:1046700010B51248807800F01000F0B90F4880782B
:1046800040F010000D498870FEF720FAFEF754FA4A
:104690000A484078032804D0042803D005280BD109
:1046A00001E000BF00BF0548807840F020000349CA
:1046B0008870FDF76EF800BF00BF10BD1800002025
:1046C0000004014058090020F94B58769976DA76B3
:1046D000704710B53821F64801F032FCF548006902
:1046E000F3498860022201210020FFF7EDFF01203D
:1046F000EF490871087F2031FFF773FB10B90A20DA
:10470000FEF78AFB10BD2DE9F04106460C46154622
:10471000304603F0A3FC0746E6480168384603F03C
:104720006BFBE349C860204603F098FC0746E1486C
:104730004168384603F060FBDD490861284603F014
:104740008DFC0746DB488168384603F055FBD849A5
:104750004861BDE8F0812DE9F0418046D448C07839
:1047600048B1404603F0AEFA06464FF06632D24BEF
:1047700002F098FF02E0404603F0A4FA044602F07B
:104780004BFCBDE8F0812DE9F04105460F46164689
:104790001C462078305C10B90020BDE8F0812078FC
:1047A000305C28702878412802DB28785A2804DDFC
:1047B0000220BF4908700020EFE72078401C2070DD
:1047C0003A4621463046FEF7DFF920B90120B849C4
:1047D00008700020E1E70120DFE701B5A6B0002066
:1047E000249020901F90B5481E9000201D901C9092
:1047F000149013901290B2484078062802D10C20F1
:1048000027B000BD002019901A901B9016901790A9
:104810001890A74908701590B3E1229803F0E2FBC5
:1048200021909DF88C00472802D04D2878D12EE1A8
:104830002198352834D01BDC11283CD009DC0B280A
:1048400052D2DFE800F03132333429515151515105
:104850002A0015283DD006DC12282DD013282CD094
:10486000142841D134E01C2818D01E283CD116E071
:1048700050281DD008DCA0F13600062834D2DFE82D
:1048800000F02B2C2D2E2F305A3805282CD2DFE8A3
:1048900000F01718081B1C0000BF00BF00BF00BFBE
:1048A00000BF012015901FE000BF00BF00BF00BF88
:1048B0000220159018E000BF00BF0320159013E000
:1048C00000BF042015900FE000BF062015900BE0FC
:1048D00000BF0720159007E000BF00BF00BF00BF6A
:1048E00000BF0920159000BF00BF2198352876D061
:1048F0001CDC112844D009DC0B2871D2DFE800F061
:104900002A2E32363AC1C1C1C1C13D0015284DD051
:1049100007DC12283AD013283ED0142860D141E099
:1049200017E11C2846D01E28F8D144E0502878D042
:1049300008DCA0F136000628DFD2DFE800F0676867
:10494000696A6B6C5A380528D7D2DFE800F06E72BE
:104950007692960000205649487096E0012054490E
:10496000487092E00220524948708EE0032050497E
:1049700048708AE001201C9087E002201C9084E0AF
:10498000022201210020FFF79FFE7EE0012200218C
:104990000220FFF799FE78E0002202210120FFF7B4
:1049A00093FE72E001204249C8706EE00020404949
:1049B000C8706AE000BF4348229903F0AFFB0B9038
:1049C00003F010FB21902198B0F58C7F09D0A0F264
:1049D000191048B113280AD014280ED10AE012E0A9
:1049E0004FE003201C900CE004201C9009E00520FF
:1049F0001C9006E006201C9003E003202C49087060
:104A000000BF00BF41E001201D903EE000BF00BF9D
:104A100000BF00BF00BF219836382549087734E031
:104A2000FFE70420224948702FE001202049087147
:104A30002BE000201E49087127E02248229903F04C
:104A40006DFB0B9003F0CEFA21902198B0F5667FB4
:104A500003D0A0F2993030B902E007201C9006E0A4
:104A600008201C9003E003201149087000BF00BF1C
:104A70000BE001200E49887007E000200C49887087
:104A800003E003200A49087000BF00BF61E02198DD
:104A900003281FD005DCB8B1012816D002281ED18A
:104AA00014E0042817D0052816D01E2817D10EE0D0
:104AB000980900205809002066663940000080BF30
:104AC000180000200000204100BF00BF00BF0520EB
:104AD000159004E000BF00BF0820159000BF00BF84
:104AE000219804281FD007DC78B1012811D00228B2
:104AF00010D0032827D112E0052818D008281AD092
:104B000009281CD01E281ED105E00120F949487152
:104B10001DE01CE000BF0220F649487117E00120AB
:104B2000F449887113E0FF20F24988710FE00020FA
:104B3000F04988710BE00120EE49C87107E00020C0
:104B4000EC49C87103E00320EA49087000BF00BFC8
:104B500000BF00BF1598A0B10121159801FA00F01F
:104B60002099084018B10520E249087007E00121AA
:104B7000159801FA00F02099084380B22090002097
:104B8000159024AB22A923A8269AFFF7FCFD002844
:104B90007FF443AED748007810B1D64800782FE6AE
:104BA000002024907CE09DF88C004638152872D2B5
:104BB000DFE800F00E0B71242526300C0D713671E4
:104BC000393E47717171555E670000BF00BF66E0F6
:104BD0000021229803F06EFA02D80620C549087019
:104BE000C448807820B12298FFF7B5FD1E9004E0FC
:104BF0002298FFF7B0FDBF49886050E000BF00BFBA
:104C00002298FFF7A8FD9DF88C10493916AA42F8A2
:104C1000210044E0229803F001FAC0B212903EE075
:104C2000229814903BE02298FFF795FD139036E010
:104C30000021229803F03EFA02D20620AD49087006
:104C40002DE00021229803F035FA02D20620A9496E
:104C50000870229803F0E2F9A64908761FE022982E
:104C6000FFF779FD19901F9840F001001F9016E0A2
:104C70002298FFF770FD1A901F9840F002001F90D5
:104C80000DE02298FFF767FD1B901F9840F004008D
:104C90001F9004E0FFE703209649087000BF00BFA3
:104CA00024AB22A923A8269AFFF76DFD00287FF4E4
:104CB0007AAF9048007810B18E480078A0E58E4811
:104CC000407807280AD08B4890F906000B90FDF732
:104CD0000BFF8848C0790B90FDF73CFF209800F44B
:104CE000007070B18348007F09A90890FFF779F838
:104CF00008B90A2084E57F4809A90EC920300EC0F2
:104D000000BF1C98092816D2DFE800F015051687A9
:104D1000FC88FBFAF3000021149803F0CBF903D2CE
:104D200006207449087006E073484078072802D0CE
:104D30001498FFF7D1FB52E1149803F053F9219036
:104D40001298022802D01298142805D12198002820
:104D500002DB2198062803DD03206649087059E02C
:104D60001F9830B91298022803D1062061490870B3
:104D700050E02198002803DD2198401E219002E098
:104D80005C48007F21902198C0B20FA90B90FFF7DB
:104D900028F808B90A2033E500200E9027E0012109
:104DA0000E9801FA00F01F990840E0B112981428FB
:104DB00012D119A90E9851F820000B904D480C30D3
:104DC0000E9950F821000A900B9903F0AFFA0FAA40
:104DD0000E9942F8210006E019A90E9851F820100A
:104DE0000FAA42F820100E98401CC0B20E900E98E8
:104DF0000328D4DB2198C0B20FA90B90FEF785FFE2
:104E00003C48017F2198814204D13A480FA90EC93C
:104E100020300EC000201F90E1E000BF1F98E0B3DB
:104E200000200B9048E001210B9801FA00F01F9937
:104E3000084098B32F480079E0B12E482C300B99E8
:104E400050F8210009902B48203050F8210008909C
:104E5000099902F063FF19A90A900B9851F82000F4
:104E6000014609900A9802F059FF19AA0B9942F8D5
:104E700021001DE01F480C300B9950F8210019A9A2
:104E80000A900B9851F8200009900A9902F046FF09
:104E900019AA0B9942F821000AE020E0FFE7154823
:104EA0000C300B9950F8211019AA0B9842F82010D9
:104EB0000B98401CC0B20B900B980328B3DB00206A
:104EC00000900E4840690A901B9809901A98089023
:104ED0001998079008A90EC9FFF71EF900BF1C9882
:104EE000052810D10FA90720FEF77BFF90B90A20F3
:104EF00086E46EE098090020180000205809002080
:104F00002FE01FE01DE00FA90620FEF76AFF08B999
:104F10000A2075E400200090FE4840690B9011982B
:104F20000A90109809900F98089009A90EC9FFF7E8
:104F3000F3F8F9480FA90EC90C300EC000201F90DD
:104F40004DE000BF1C98062805D1F3490C3107201D
:104F5000FEF7DBFE04E0F0490C310620FEF7D5FE3B
:104F60003DE01F9818B90620EB4908702EE000209C
:104F70000B9027E001210B9801FA00F01F990840DF
:104F8000E0B1E54820300B9950F821000990E24843
:104F90000C3050F821000890099903F0C7F919A9BD
:104FA0000A900B9851F82000014609900A9803F0E6
:104FB000BDF9D9492C310B9A41F822000B98401CBD
:104FC000C0B20B900B980228D4DD00BF00201F90C8
:104FD00005E0D1480021C1620163416300BF00BF09
:104FE000209800F0040010B91F98002875D0CA4816
:104FF000807858B100211E9803F05CF806D2C648AC
:105000004078042802D00620C34908701D9848B192
:10501000C148407830B1C0484078012802D006200D
:10502000BD490870BC48007810B1BB480078B6E5AF
:1050300000200E9049E001210E9801FA00F01F991E
:105040000840A0B31D9888BBB3480079E0B1B248CE
:105050002C300E9950F821000A90AF48203050F8BB
:10506000210009900A9902F059FE19A90B900E9897
:1050700051F8200001460A900B9802F04FFE19AA41
:105080000E9942F821001CE0A3480C300E9950F80C
:10509000210019A90B900E9851F820000A900B9945
:1050A00002F03CFE19AA0E9942F8210009E0FFE740
:1050B00099480C300E9950F8211019AA0E9842F810
:1050C00020100E98401CC0B20E900E980228B2DD3F
:1050D0009148407805280BD200E07AE1DFE800F043
:1050E000091F3B3C03001F9810B106208A49087035
:1050F00063E11F9818B90620874908700EE0002068
:105100000090844840690B901B980A901A98099067
:105110001998089009A90EC9FEF7FEFF4DE11F98E6
:1051200018B906207C49087014E07B48807800900C
:105130007948807808B11E9801E0774880680B9024
:105140001B980A901A9809901998089009A90EC9F5
:10515000FEF7E2FF31E100BF6F48C07E01218140D0
:105160001F9888431F90C0B10021139802F006FFDA
:1051700017D16948407E16A951F8200000210B90F4
:1051800002F0FCFE0DD16448807E16A951F8200083
:1051900000210B9002F0F2FE03D106205E49087058
:1051A0000AE10021139802F0E9FE7DD05A48417EC1
:1051B0000C3050F8210009905748407E19A951F849
:1051C00020000890099903F0B1F80B905248817EB5
:1051D0000C3050F8210009904F48807E19A951F8F1
:1051E00020000890099903F0A1F80A900020169079
:1051F000179018900A99084602F090FF09900B99B1
:10520000084602F08BFF07904FF08140139902F09F
:1052100085FF0590139902F081FF0690079903F02E
:1052200085F80890099903F081F80C9000210C98FA
:1052300002F040FF05D20420374908700846007884
:10524000ADE40A9802F03EFDCDE902010B9802F0B0
:1052500039FDCDE90001DDE9022301F011FDCDE9C1
:1052600006010C9802F02EFDCDE9020101F0AEFE20
:1052700081F00041CDE90401DDE9062301F0BAFF28
:10528000CDE9080101F0C8FE0C90234840780328BE
:1052900003D10C9880F000400C900021139802F08C
:1052A00009FF09D20C9800E042E080F000400C9029
:1052B000139880F0004013900C990A9802F02EFF8A
:1052C00004900B9903F027F8059002F0FBFC0022F4
:1052D000124BCDE9060102F0E5F9CDE9080101F034
:1052E0009BFE0D49497E16AA42F82100DDE90B011B
:1052F00002F014FF04900A9902F010FD059002F0EC
:10530000E1FC0022054BCDE9060102F0CBF9CDE925
:10531000080105E058090020980900200000E03F3E
:1053200001F07AFE3549897E16AA42F821001CE078
:105330003248807E16A951F82000059002F0C2FC88
:10534000CDE908012D48407E16A951F820000590AE
:1053500002F0B8FCCDE90601DDE9082301F090FC7C
:10536000CDE90A0101F058FE139000200D9023486A
:105370004078022801D101200D90204A92781F4BDD
:105380009B7813990D980BB11E9B01E01B4B9B68FA
:10539000CDE90232CDE904101848C07E1749897E54
:1053A000CDE900101548407E034616AA19A90B90B6
:1053B00012480C30FEF7DEFE00BF00BF0F48007839
:1053C00010B10E48007879E40C4819A90EC90C30C8
:1053D0000EC00A48407970B100F074FA0020084904
:1053E000087406484079022802D1FFF741F902E02B
:1053F000002002494871014800785FE498090020C4
:1054000018000020411CC8B2122800D100207047AB
:1054100000B91220411EC8B270472DE9F04704467A
:105420000D46164631464FF0804002F077FE80462A
:105430002146204602F072FE81462946284602F0A7
:105440006DFE8246494602F071FF0746414602F072
:10545000D3FCBDE8F0872DE9FE4F04460D46164605
:105460001F4631464FF0814002F058FE2946029017
:10547000284602F053FE83462146204602F04EFEA7
:10548000314601904FF0804002F048FE39460090CE
:1054900002F044FE8246019902F048FF81465946D7
:1054A00002F03CFC8046029902F0A6FCBDE8FE8FAB
:1054B0002DE9FE4F82460C4691464FF08041504602
:1054C00002F02CFE4946009002F028FE2146029090
:1054D000204602F023FE0190029902F027FF834646
:1054E00002F0F0FB074601F071FD054601F094FD66
:1054F000BDE8FE8F2DE9F04180460C4615460CB9FB
:10550000BDE8F08165B3D4E9060102F037FD27D08C
:1055100094F82500F8B9A969E06902F0CBFE1AD227
:10552000FE48006A80F00047226A3846A969FFF702
:10553000BFFF0646E16902F0BDFE01D2E06908E066
:10554000F648006A80F00046226A3046A969FFF7F3
:10555000AFFFA06101E0E069A061012084F82400B0
:1055600000BFCDE73EB5EE480478002000900190E2
:1055700002900FE02046FFF74BFF0446019802908F
:1055800000980190E74800EB841000909DE8070028
:10559000FFF7B0FFE44800788442EBD13EBD2DE92F
:1055A000F04704460D4691460CB9BDE8F08794F8E3
:1055B000250040BBA969A06902F07CFD23D2D74831
:1055C000006A80F000484046226AA169FFF770FF38
:1055D0000746A96902F06EFE01D2A86908E0CF482B
:1055E000006A80F000473846226AA169FFF760FF31
:1055F00006463146A86902F0C1FC03D0AE61012025
:1056000085F8240000BF00BFCFE73EB5C648047848
:1056100000200090019002900FE001980090029805
:105620000190C04800EB841002909DE80700FFF74E
:10563000B6FF2046FFF7E6FE0446B94800788442EC
:10564000EBD10022DDE90101FFF7A9FF3EBD2DE905
:10565000F74F88B004461646E06B02F017FD039042
:10566000099902F05BFD834602F02CFBCDE90401B1
:1056700001F0D4F9074601F081FFA062E06B02F06F
:1056800005FD3146039002F049FD834602F01AFB06
:10569000074601F0C3F9CDE9040101F06FFFE062B4
:1056A0003222216B01FB02F001F095FF0746002238
:1056B0009E4B01F0F7FFCDE9040101F02FFF814679
:1056C000484602F0CBFC0390E06B02F0DFFC029056
:1056D000A06A02F0DBFC0190DDE90212FFF79DFEFB
:1056E000834602F0EFFACDE9040101F097F907468D
:1056F00001F014FF0546C9F1000002F0AFFC039071
:10570000E06A02F0C3FC0290E06B02F0BFFC019083
:10571000DDE90212FFF781FE834602F0D3FACDE9FC
:10572000040101F03FFA074601F0F8FE06902069F7
:10573000411B0698A1EB000ABAF1000F2DDA20698F
:1057400002F08CFC0390484602F088FC0290E06A6C
:1057500002F09CFC0190A06A02F098FC009001A964
:105760000EC9FFF778FE834602F0ACFACDE90401DA
:1057700001F054F9074601F0D1FE0546002D01DD88
:10578000284600E0002005462069A84201DD2846A1
:1057900000E0206905464FF0000A656305EB0A004A
:1057A000A0630BB0BDE8F08F2DE9F84F5E4890F88C
:1057B00000A04FF0000921E04C465A4800EB8A193E
:1057C000C4B194F8240010B999F8240090B161692B
:1057D000D9F8180002F010FB0546D4E9051002F0D4
:1057E0000BFB06462A4631462046FFF730FF0020D5
:1057F00084F824005046FFF705FE824648480078AA
:105800008245D9D1D9F8140002F05CFA07463A462D
:105810000B460020014601F0EDFC054601F0FCFBC3
:105820008346D9E9051002F0E7FA5A46014600908E
:105830004846FFF70CFF002089F82400BDE8F88FE8
:1058400010B5FFF78FFEFFF7E0FEFFF7ADFF10BDCD
:1058500010B5334800783449087031480078FFF7B4
:10586000D1FD3349087010BD10B5FFF7F1FF1C21C1
:10587000304800F065FB10BD10B5294800782A4972
:105880000978884205D028480078FFF7BBFD2649F3
:10589000087010BD2248007823490978884201D158
:1058A000002070471F482049097800EB8110F8E775
:1058B0001D4800781E490978884201D101207047AF
:1058C0000020FCE710B505E0FCF71DFF1A48007842
:1058D00000B110BDFFF7DEFF0028F5D11648407873
:1058E0000328F1D000BFF4E70FB5A1B00D480C4973
:1058F000097800EB811010900848006801460A9072
:10590000219802F00BFC0B9002F0DCF900220B4B0B
:10591000CDE90C0101F0B2FB12E0000058090020B3
:1059200013000020D00900201400002000004E4089
:1059300015000020500E0020180000200000E03F5D
:10594000CDE90E0101F0EAFD1790FE4840680146DE
:105950000A90229802F0E2FB0B9002F0B3F90022C9
:10596000F94BCDE90C0101F089FBCDE90E0101F005
:10597000D5FD1890F348806801460A90239802F0FC
:10598000CDFB0B9002F09EF90022EF4BCDE90C010C
:1059900001F074FBCDE90E0101F0C0FD199000216A
:1059A00010980170E94817990068814205DA10984B
:1059B000007840F0200110980170E4491898496877
:1059C000884205DA1098007840F040011098017084
:1059D000DE4919988968884205DA1098007840F005
:1059E000800110980170D94917980968401A0F90E2
:1059F000002801DB0F9801E00F98404210994860A1
:105A0000D24918984968401A0F90002801DB0F9876
:105A100001E00F98404210998860CC491998896834
:105A2000401A0F90002801DB0F9801E00F984042C8
:105A30001099C8601098D0E90210814202D91098DC
:105A4000806801E01098C06810994968884202D2C5
:105A50001098406809E01098D0E90210814202D9FC
:105A60001098806801E01098C0681099086110983B
:105A7000006908B925B000BDB44917980968401AF3
:105A80000E9002F0EBFA0F90AE48006801460E90BF
:105A90000F9802F0B1F91D90AC4918984968401A66
:105AA0000E9002F0DBFA0F90A648406801460E9077
:105AB0000F9802F0A1F91E90A44919988968401A1C
:105AC0000E9002F0CBFA0F909E48806801460E902F
:105AD0000F9802F091F91F901F98089001460790C7
