:020000040800F2
:10000000600B0020D501000879090008B705000839
:100010007509000889040008CF12000800000000DC
:100020000000000000000000000000006D0E00084D
:100030008D040008000000002D0D00084910000884
:10004000EF010008EF010008EF010008EF010008D0
:10005000EF010008EF010008EF010008EF010008C0
:10006000EF010008EF010008EF010008EF010008B0
:10007000EF010008EF010008EF010008EF010008A0
:10008000EF010008EF010008EF010008EF01000890
:10009000EF010008EF010008EF010008EF01000880
:1000A000EF010008EF010008EF010008EF01000870
:1000B000EF010008EF010008EF010008EF01000860
:1000C000EF010008EF010008EF010008EF01000850
:1000D000EF010008AD100008EF010008EF01000873
:1000E000EF010008EF010008EF010008EF01000830
:1000F000EF010008EF010008EF010008EF01000820
:10010000EF010008EF010008EF010008EF0100080F
:10011000EF010008EF010008EF010008EF010008FF
:10012000EF010008EF010008EF010008EF010008EF
:1001300000F002F800F03FF80AA090E8000C8244BA
:100140008344AAF10107DA4501D100F034F8AFF297
:10015000090EBAE80F0013F0010F18BFFB1A43F0A5
:1001600001031847A0330000C0330000103A24BF39
:1001700078C878C1FAD8520724BF30C830C144BF0C
:1001800004680C607047000000230024002500264E
:10019000103A28BF78C1FBD8520728BF30C148BFEA
:1001A0000B607047642900F07780002070471FB50E
:1001B0001FBD10B510BD00F037F91146FFF7F7FF6E
:1001C00001F096F900F055F903B4FFF7F2FF03BC14
:1001D00001F0D6F80948804709480047FEE7FEE7E6
:1001E000FEE7FEE7FEE7FEE7FEE7FEE7FEE7FEE7E7
:1001F00004480549054A064B704700004D100008A9
:100200003101000860050020600B0020600700201D
:1002100060070020704700000FB4044910B503AA1E
:10022000029800F0D3F810BC5DF814FB1800002011
:100230002DE9F0410E460446002020622046E16888
:10024000884730B3252805D0D4E901219047206A9A
:10025000401CF2E7E168204600278847050018D0D7
:10026000A5F14100192802D820354FF40067324625
:10027000294620462760FFF795FF40B1012804D0AA
:10028000F61D26F007060836D8E7361DD6E72846BD
:10029000DAE7206ABDE8F0812DE9F0410646002446
:1002A00010687529314616A510D0AFF300800028DC
:1002B00002DA404213A507E031688A0701D512A58A
:1002C00002E0490704D511A5012401E0AFF3008045
:1002D00000210A2206F1240709E0B0FBF2FCB0FB82
:1002E000F2F302FB1C00303078541846491C0028F9
:1002F000F3D123462A463046BDE8F04100F00CB861
:10030000000000002D0000002B0000002000000075
:1003100070477047704770472DE9F0470D46994682
:100320009246044600F124080168880604D5E06975
:1003300021F01001216000E00120A84201DD471BEF
:1003400000E00027A1697A1902EB0900081AA061F0
:100350002078C00602D42046AFF30080002608E0D3
:10036000D4E901211AF806009047206A401C761C47
:1003700020624E45F4DB2078C0060AD52046AFF354
:10038000008006E0D4E9012130209047206A401C1B
:100390002062381EA7F10107F4DC07E0D4E901214F
:1003A00018F805009047206A401C2062281EA5F11D
:1003B0000105F3DC2046AFF300802078000602D56B
:1003C0000220BDE8F0870120FBE70000074B70B575
:1003D0000D467B4400F011F80446284600F020F852
:1003E00010B14FF0FF3070BD204670BD8F1000007F
:1003F00001694A1C02610878704700B58FB0CDE9E9
:1004000001310021059105497944CDE903101146D8
:100410006846FFF70DFF0FB000BD0000E5FFFFFFCE
:10042000007B00F080007047754600F029F8AE466A
:1004300005006946534620F00700854618B020B5F0
:10044000FFF7D6FEBDE820404FF000064FF0000752
:100450004FF000084FF0000B21F00701AC46ACE86C
:10046000C009ACE8C009ACE8C009ACE8C0098D46D9
:1004700070470446AFF300802046FFF7A5FE00005A
:1004800000487047FC04002000BFFEE770472DE9DC
:10049000F04102460025002600200023002400270A
:1004A00091F803C00CF00F0591F803C00CF0100C8C
:1004B000BCF1000F03D091F802C04CEA050591F899
:1004C00000C0BCF1000F31D0146800202BE04FF0C9
:1004D000010C0CFA00F3B1F800C00CEA03069E42CE
:1004E00020D183004FF00F0C0CFA03F7BC4305FA40
:1004F00003FC4CEA040491F803C0BCF1280F06D1B8
:100500004FF0010C0CFA00FCC2F814C00AE091F89C
:1005100003C0BCF1480F05D14FF0010C0CFA00FCF0
:10052000C2F810C0401C0828D1D31460B1F800C034
:10053000BCF1FF0F34DD546800202EE000F1080C00
:100540004FF0010808FA0CF3B1F800C00CEA0306FA
:100550009E4221D183004FF00F0C0CFA03F7BC43ED
:1005600005FA03FC4CEA040491F803C0BCF1280F1F
:1005700005D100F1080C08FA0CF8C2F8148091F8C3
:1005800003C0BCF1480F07D100F1080C4FF001087F
:1005900008FA0CF8C2F81080401C0828CED354602A
:1005A000BDE8F0810246002093680B400BB10120AA
:1005B00000E00020704700BFFEE7000008B5012101
:1005C000082000F0B5FBC020ADF8000010208DF829
:1005D000030003208DF8020069460548FFF757FF26
:1005E0000120044908600449C1F89C0108BD0000CD
:1005F000000C0140988121420080214210B500F09A
:1006000023FC0120094908600949C1F89801042028
:1006100000F002FF002005490860042000F0FCFE05
:1006200000200349C1F8980110BD00009C812142BF
:100630000080214210B500F007FC00200849086046
:100640000849C1F89C01052000F0E6FE012004499C
:1006500008600449C1F89C01052000F0DDFE10BDD2
:10066000988121420080214208B501210C2000F030
:100670005FFB4FF47E40ADF8000048208DF803008A
:1006800069460248FFF703FF08BD0000000C014067
:1006900010B5044614B101204E4908704D48007849
:1006A000002868D04FF400714B48FFF77BFF18B368
:1006B0004FF480614848FFF775FFE8B14FF40061DF
:1006C0004548FFF76FFFB8B14FF480514248FFF73C
:1006D00069FF88B14FF400513F48FFF763FF58B1FD
:1006E0004FF480413C48FFF75DFF28B14FF40041D3
:1006F0003948FFF757FFA8BB0A2000F067FE00202B
:10070000344908704FF480613348FFF74BFF08B954
:10071000012010BD4FF400612F48FFF743FF08B9D7
:100720000220F6E74FF480512B48FFF73BFF08B952
:100730000320EEE74FF400512748FFF733FF08B9D5
:100740000420E6E74FF480412348FFF72BFF08B968
:100750000520DEE74FF400411F48FFF723FF10B9E3
:100760000620D6E707E04FF400711B48FFF71AFF99
:1007700070BB0720CDE74FF400711748FFF712FF59
:10078000012825D181021448FFF70CFF01281FD151
:10079000C1021148FFF706FF012819D101030E48D5
:1007A000FFF700FF012813D141030B48FFF7FAFEC2
:1007B00001280DD181030848FFF7F4FE012807D175
:1007C000C1030548FFF7EEFE012801D10149087079
:1007D00000209EE732000020000C014008B500F028
:1007E0000FF900200D49087011E00A200B49009014
:1007F000097809011031C8B2012308490A78182183
:1008000000F0BEF905480078401C04490870034810
:1008100000780628E9DB00F091F908BD33000020DC
:1008200008B500F0EDF800200D49087011E0052032
:100830000B490090097809011031C8B20123084919
:100840000A78182100F09CF905480078401C0449FA
:100850000870034800780628E9DB00F06FF908BD4E
:100860003300002008B500F0CBF800200D490870D7
:1008700011E004200B490090097809011031C8B239
:10088000012308490A78182100F07AF90548007810
:10089000401C04490870034800780628E9DB00F092
:1008A0004DF908BD3300002008B500F0A9F800207C
:1008B0000D49087011E006200B49009009780901E4
:1008C0001031C8B2012308490A78182100F058F9FC
:1008D00005480078401C0449087003480078062841
:1008E000E9DB00F02BF908BD3300002008B500F06B
:1008F00087F800200D49087011E009200B4900908D
:10090000097809011031C8B2012308490A78182171
:1009100000F036F905480078401C04490870034887
:1009200000780628E9DB00F009F908BD3300002053
:1009300008B500F065F800200D49087011E00820A6
:100940000B490090097809011031C8B20123084908
:100950000A78182100F014F905480078401C044971
:100960000870034800780628E9DB00F0E7F808BDC6
:100970003300002000BFFEE77047000070B5002183
:1009800000230F22C47804B3154C246804F4E064F7
:10099000C4F5E064210AC1F10403CA40447804FAB2
:1009A00003F184781440214309010E4C0678A155C7
:1009B000047804F01F050124AC4005786D11AD00EA
:1009C00005F1E025C5F8004109E0047804F01F05B1
:1009D0000124AC40044D0678761145F8264070BDE0
:1009E0000CED00E000E400E080E100E0024901439A
:1009F000024A1160704700000000FA050CED00E0AB
:100A000070B500240CE0002506E00020074901EB4A
:100A1000C5010855681CC5B2802DF6DB601CC4B248
:100A2000082CF0DB00F08AF870BD0000FC0000200C
:100A3000F0B5144600267F2801DC3F2900DDF0BD1B
:100A40000B46CF1701EB5777FF10C7F10707FAB234
:100A5000CF1701EB5777FF10A1EBC707FDB2C5F128
:100A600007070123BB40DEB24CB10A4B03EBC003C6
:100A70009B5C3343074F07EBC007BB5408E0054BB3
:100A800003EBC0039B5CB343024F07EBC007BB54AF
:100A900000BFD4E7FC00002010B54FF4FA7000F05E
:100AA00095FCAE2000F016F9D52000F013F9502087
:100AB00000F010F9A82000F00DF93F2000F00AF92D
:100AC000D32000F007F9002000F004F9402000F0E6
:100AD00001F98D2000F0FEF8142000F0FBF8202032
:100AE00000F0F8F8022000F0F5F8A12000F0F2F88C
:100AF000C02000F0EFF8DA2000F0ECF8122000F04F
:100B0000E9F8812000F0E6F8EF2000F0E3F8D920C2
:100B100000F0E0F8F12000F0DDF8DB2000F0DAF87A
:100B2000302000F0D7F8A42000F0D4F8A62000F080
:100B3000D1F8AF2000F0CEF810BD000070B5002451
:100B400018E004F1B001C8B200F0C4F8002000F0D1
:100B5000C1F8102000F0BEF8002507E0074901EBBE
:100B6000C501085D00F0CCF8681CC5B2802DF5DB2E
:100B7000601CC4B2082CE4DB70BD0000FC00002047
:100B80002DE9FC4F82460F46144699460B9EBB4604
:100B9000202000906006040E002581E0012E04D183
:100BA000424800EB0410405D0190022E04D1404801
:100BB00000EB0410405D0190032E04D13D4800EB92
:100BC0000410405D0190042E04D13B4800EB04105A
:100BD000405D0190052E04D1384800EB0410405DC3
:100BE0000190062E04D1364800EB0410405D0190C0
:100BF000072E04D1334800EB0410405D0190082E0D
:100C000004D1314800EB0410405D0190092E04D15D
:100C10002E4800EB0410405D01900A2E04D12C48B0
:100C200000EB0410405D01904FF0000833E04FF0FE
:100C3000000828E0019800F0800028B14A463946B3
:100C40005046FFF7F5FE0AE0B9F1000F01D101208F
:100C500000E00020024639465046FFF7E9FE0198C1
:100C60004006000E0190781CC7B2A7EB0B001028BD
:100C700005D15F460AF1010000F0FF0A06E008F125
:100C8000010000F0FF08B8F1080FD3DB00BF08F146
:100C9000010000F0FF08B8F1080FC8DB681CC5B2FE
:100CA00000988542FFF67AAFBDE8FC8F84160008F5
:100CB000E41600086417000804180008C4180008A7
:100CC00084190008441A0008041B0008C41B00080B
:100CD000841C000810B50446FFF790FC782000F053
:100CE000C7F800F0F7FA002000F0C2F800F0F2FABE
:100CF000204600F0BDF800F0EDFAFFF79BFC10BDB8
:100D000010B50446FFF77AFC782000F0B1F800F047
:100D1000E1FA402000F0ACF800F0DCFA204600F0E8
:100D2000A7F800F0D7FAFFF785FC10BD7047000068
:100D300029B1064A92690243044B9A6104E0034ACE
:100D400092698243014B9A61704700000010024093
:100D500030B500210022002400232D4D6D6805F0E0
:100D60000C0121B1042905D0082923D105E0294D22
:100D7000056022E0274D05601FE0254D6D6805F4F4
:100D80007012234D6D6805F48034022505EB924204
:100D90001CB9214D554305600BE01D4D6D6805F4F0
:100DA00000351DB11C4D5543056002E0194D5543FA
:100DB000056002E0174D056000BF00BF144D6D686F
:100DC00005F0F0010909154D6B5C0568DD404560D3
:100DD0000F4D6D6805F4E061090A104D6B5C4568C4
:100DE000DD4085600A4D6D6805F46051C90A0B4D00
:100DF0006B5C4568DD40C560054D6D6805F440419C
:100E0000890B074D6B5CC568B5FBF3F5056130BD1B
:100E10000010024000127A0000093D001E00002070
:100E20002E00002008B58020ADF8000003208DF8CA
:100E3000020048208DF8030069460248FFF727FBAF
:100E400008BD0000000C014008B58020ADF800008E
:100E500003208DF8020010208DF803006946024837
:100E6000FFF715FB08BD0000000C014070470000B3
:100E700070B50446FFF7E8FF00200F490860002521
:100E800017E0E0090C49091D08606006040E022005
:100E900000F0C2FA01200949C1F89801022000F0CF
:100EA000BBFA002004490860022000F0B5FA681C73
:100EB000C5B2082DE5DB70BD98812142008021423A
:100EC00010B500F001F810BD0CB5002001900090A5
:100ED0003348006840F480303149086000BF304832
:100EE000006800F4003000900198401C01900098C8
:100EF00018B90198B0F5A06FF1D12948006800F445
:100F0000003010B10120009001E000200090009816
:100F1000012843D12348006840F0100021490860AF
:100F20000846006820F0030008600846006840F0AA
:100F3000020008601A48406819494860084640683D
:100F400048600846406840F4806048600846406851
:100F500020F47C1048600846406840F4E81048607F
:100F60000846006840F08070086000BF0C480068C8
:100F700000F000700028F9D00948406820F0030014
:100F8000074948600846406840F00200486000BFDA
:100F90000348406800F00C000828F9D10CBD00009F
:100FA000001002400020024008B5FFF729FD002094
:100FB0001A49087011E002201849009009780901C7
:100FC0001031C8B2012315490A780021FFF7D8FD76
:100FD00012480078401C1149087010480078042815
:100FE000E9DB00200D49087011E003200B49009057
:100FF000097809011031C8B2012308490A7818217B
:10100000FFF7BEFD05480078401C044908700348FE
:1010100000780528E9DBFFF791FD08BD33000020CB
:10102000042808D14FF0E021096941F004014FF094
:10103000E022116107E04FF0E021096921F004018D
:101040004FF0E022116170477047000010B513485F
:10105000006840F0010011490860084640681049E6
:1010600008400E494860084600680E4908400B4990
:1010700008600846006820F4802008600846406840
:1010800020F4FE0048604FF41F008860FFF718FF4F
:101090004FF000600449086010BD000000100240DD
:1010A0000000FFF8FFFFF6FE08ED00E010B540F28B
:1010B00025511D4800F04AF810B31B4800F002F912
:1010C000C4B21A48008800F40040C8B91748008824
:1010D00000F4804060B10A2C03D00020134908803E
:1010E00020E01248008840F400401049088019E0D0
:1010F0000D2C06D10D48008840F480400B49088033
:1011000010E00A480088C0F30D0009490C54074854
:101110000088401C0549088008460088C72801DD72
:101120000020088010BD0000003801401C00002095
:101130003400002021B1828942F40052828104E00F
:1011400082894DF6FF731A408281704770B502465E
:10115000002400230025002040F66A16B14200D189
:1011600000BFC1F3421501F01F03012606FA03F385
:10117000012D02D19689334006E0022D02D1168A54
:10118000334001E0968A33400C12012606FA04F43B
:101190001688344013B10CB1012000E0002070BD6E
:1011A000F0B50346002400260025002040F66A170B
:1011B000B94200D100BF1846C1F3421401F01F0626
:1011C000012707FA06F5012C01D10C3004E0022CAE
:1011D00001D1103000E014301AB107682F430760C6
:1011E00002E00768AF430760F0BD00002DE9F0475B
:1011F00086B005460E460024A24600BFA146002741
:10120000B08900B100BF2F462C8A4CF6FF70044015
:10121000F08804432C82AC894EF6F3100440B08869
:1012200031890843718908430443AC81AC8A4FF685
:10123000FF400440B0890443AC8201A8FFF788FD59
:101240001F48874202D1DDF810A001E0DDF80CA0B4
:10125000A88900F4004040B10AEBCA0000EB0A1074
:1012600031684900B0FBF1F807E00AEBCA0000EB77
:101270000A1031688900B0FBF1F86420B8FBF0F087
:1012800004012009642101FB1089A88900F40040B1
:1012900040B1322000EBC900B0FBF1F000F00700D4
:1012A000044308E0322000EB09106421B0FBF1F0A8
:1012B00000F00F0004432C8106B0BDE8F087000069
:1012C0000038014001468888C0F30800704700BF1D
:1012D000FEE7000010B50024FFF7A4FD01200E4931
:1012E000086000F099F801200C49C1F8980100F05D
:1012F00093F807E0601CC4B2FA2C03DDFFF79AF9FB
:10130000012010BD0448803800680028F2D102494D
:10131000091F086000BFF4E79C8121420080214240
:1013200010B50446214602A0FEF776FF10BD00006E
:101330004730312058256420463236300D0A0000EF
:1013400010B50446214602A0FEF766FF10BD00005E
:101350004730312059256420463236300D0A0000CE
:1013600010B50446214602A0FEF756FF10BD00004E
:10137000473031205A256420463236300D0A0000AD
:10138000014600BF7047000010B56FF00400FFF782
:1013900047FE0A4800680A49B0FBF1F009490870A5
:1013A0000846007800EB4001C1EBC0104FF6FF711A
:1013B00001EAC0000449088010BD000000000020C0
:1013C00000127A0014000020160000200146114A85
:1013D00012884A434FF0E0235A6100229A611A466C
:1013E000126942F001021A6100BF4FF0E022106959
:1013F00000F001021AB100F48032002AF5D04FF05B
:10140000E022126922F001024FF0E0231A6100226B
:101410009A617047160000200146114A12784A432B
:101420004FF0E0235A6100229A611A46126942F095
:1014300001021A6100BF4FF0E022106900F00102C2
:101440001AB100F48032002AF5D04FF0E022126980
:1014500022F001024FF0E0231A6100229A617047E6
:101460001400002000BF054A128802F04002002A42
:10147000F9D0C2B2014B1B1D1A80704700380140E1
:101480000C48806940F004000A4988610A480068F5
:101490000020094908600846006840F033300860C1
:1014A00005480C30006840F0040003490C31086026
:1014B00070470000001002400008014010B50A48C3
:1014C0000068C0430949C1F888016420FFF77EFF26
:1014D0000648D0F88801C0430449C1F88801642057
:1014E000FFF774FF10BD0000880121420000214277
:1014F0000024FFF749FF4FF4A060FFF777FAFFF7EA
:10150000BFFFFFF75BF8FFF7C7FAFFF7ADF84FF43F
:10151000165000F067F8FFF747FD4CE00020FFF79A
:10152000B7F80446002C43D0082C40D2DFE804F082
:101530003F040C151D262E37FFF7C0FF0120FFF7D3
:10154000EFFEFFF78FF932E0FFF7B8FF4FF0FF3003
:10155000FFF7E6FEFFF764F929E0FFF7AFFF012090
:10156000FFF7EEFEFFF7A0F921E0FFF7A7FF4FF02E
:10157000FF30FFF7E5FEFFF775F918E0FFF79EFF74
:101580000120FFF7EDFEFFF7D3F910E0FFF796FF1C
:101590004FF0FF30FFF7E4FEFFF7A8F907E0FFF791
:1015A0008DFF042000F008F8FFF718F900BF02E0F3
:1015B0000A20FFF70BFFB1E710B50446224621468B
:1015C00001A0FEF729FE10BD4730322058302059C7
:1015D0003020492564204A256420463236300D0AE1
:1015E0000000000010B586B00446012144F204005A
:1015F000FFF79EFB4FF40070ADF8140003208DF848
:10160000160018208DF8170005A91C48FEF73FFFAB
:101610004FF48060ADF8140004208DF8170005A980
:101620001648FEF734FF25208DF8000003208DF8C2
:1016300001008DF8020001208DF803006846FFF7D5
:101640009DF901940020ADF80800ADF80A00ADF84E
:101650000C00ADF810000C20ADF80E0001A90848F0
:10166000FFF7C4FD012240F225510548FFF798FD20
:1016700001210348FFF75EFD06B010BD00080140E0
:101680000038014000000040004208420CF40B48C2
:101690003874088008980C947BE412A410BC1020C5
:1016A0000000000000000000006000C0000000001A
:1016B0000008378C1878000000000100018000C08D
:1016C00000000000000000000F84000800303FC050
:1016D000000003C0020002003FFE0400044007C0F7
:1016E00004000000000000000004001800600F80EB
:1016F000093C092429242A241624187C00200000EF
:1017000000000000000001000110017009A0092282
:1017100009440228023002C03F042404043807C0F0
:10172000000000000000000002040C0404480850FF
:101730000A6032B80AC40882108218020802000C3B
:101740000004000000000000002001203F200A20CB
:10175000122002FE7EA009201120214023400040DB
:1017600000000000000001000100020833F8101022
:10177000012001040DF87EB016A21AFE020002003C
:10178000020000000000010001000104011809E04E
:101790001F00110011001FFC1100110002000200C7
:1017A0000000000000000080008400C42FA8117019
:1017B0000388000003380D24312401240638032057
:1017C0000000000000000020022002463FFC03044D
:1017D000030422A83F702AFE3760255007480048BE
:1017E0000004000000000080010002000FFC300037
:1017F000010002000C00777E0490049004A0080011
:10180000000000000004181C0E7003C003E01C3828
:10181000100C00000000001004D007501FDC24A0B2
:1018200000A000A000F800A83FF80148010C01F852
:101830000100000000000000000400040178098895
:101840000808080817F8108811081108000800088F
:101850000008000000000000030002FC02000680F7
:101860001AF06290029004E004800406043E07C06F
:1018700000000000000000400080033C0CC030006D
:1018800000040064120812180268028800080008A8
:1018900000080000000001100120094009881FF025
:1018A00022C00202094215643298159018A010C097
:1018B000008000000000000C000C00000000000090
:1018C000000000000004181C0E7003C003E01C3868
:1018D000100C00000000001004D007501FDC24A0F2
:1018E00000A000A000F800A83FF80148010C01F892
:1018F00001000000000000000000000004020BE2F4
:10190000120476F81A801208140403E6000000009E
:101910000000000000000000030002FC020006803E
:101920001AF06290029004E004800406043E07C0AE
:1019300000000000000000400080033C0CC03000AC
:1019400000040064120812180268028800080008E7
:1019500000080000000001100120094009881FF064
:1019600022C00202094215643298159018A010C0D6
:10197000008000000000000C000C000000000000CF
:101980000000000010001C00070001FC03FC0E001A
:10199000180000000000001004D007501FDC24A035
:1019A00000A000A000F800A83FF80148010C01F8D1
:1019B0000100000000000000000400040178098814
:1019C0000808080817F8108811081108000800080E
:1019D0000008000000000000030002FC0200068076
:1019E0001AF06290029004E004800406043E07C0EE
:1019F00000000000000000400080033C0CC03000EC
:101A00000004006412081218026802880008000826
:101A100000080000000001100120094009881FF0A3
:101A200022C00202094215643298159018A010C015
:101A3000008000000000000C000C0000000000000E
:101A40000000000010001C00070001FC03FC0E0059
:101A5000180000000000001004D007501FDC24A074
:101A600000A000A000F800A83FF80148010C01F810
:101A700001000000000000000000000004020BE272
:101A8000120476F81A801208140403E6000000001D
:101A90000000000000000000030002FC02000680BD
:101AA0001AF06290029004E004800406043E07C02D
:101AB00000000000000000400080033C0CC030002B
:101AC0000004006412081218026802880008000866
:101AD00000080000000001100120094009881FF0E3
:101AE00022C00202094215643298159018A010C055
:101AF000008000000000000C000C0000000000004E
:101B0000000000000000101C107C10CC130C1E0CF8
:101B1000180C00000000001004D007501FDC24A0A7
:101B200000A000A000F800A83FF80148010C01F84F
:101B30000100000000000000000400040178098892
:101B40000808080817F8108811081108000800088C
:101B50000008000000000000030002FC02000680F4
:101B60001AF06290029004E004800406043E07C06C
:101B700000000000000000400080033C0CC030006A
:101B800000040064120812180268028800080008A5
:101B900000080000000001100120094009881FF022
:101BA00022C00202094215643298159018A010C094
:101BB000008000000000000C000C0000000000008D
:101BC000000000000000101C107C10CC130C1E0C38
:101BD000180C00000000001004D007501FDC24A0E7
:101BE00000A000A000F800A83FF80148010C01F88F
:101BF00001000000000000000000000004020BE2F1
:101C0000120476F81A801208140403E6000000009B
:101C10000000000000000000030002FC020006803B
:101C20001AF06290029004E004800406043E07C0AB
:101C300000000000000000400080033C0CC03000A9
:101C400000040064120812180268028800080008E4
:101C500000080000000001100120094009881FF061
:101C600022C00202094215643298159018A010C0D3
:101C7000008000000000000C000C000000000000CC
:101C800000000000000000000040007C03C8122893
:101C9000122813C81528142805C80608003C00C0DF
:101CA000000000000000000000001FFC100411EC08
:101CB0001D1415E42D243E14218420043FFE000051
:101CC0000000000000000000000D000E00000000F9
:101CD0000000000000000000000000000000000004
:101CE00000000000000000800080088012A06AB0A0
:101CF00012B8072012A222FE68C028C021000100ED
:101D000000000000000000200040048009FC3600B4
:101D1000210001200150464079420AFE0A4002009B
:101D20000200000000000000001C00140014001855
:101D300000000000000000000000000000000000A3
:101D40000000000000000000000000000000000093
:101D5000000000003F4000000000000000003000D4
:101D6000400030004000000009000BC03D000BC0E7
:101D70003D00090018C024407FE02240318000006F
:101D8000180024C01B000D803240018003801C40DD
:101D900027401C8007400040100060000000000049
:101DA000000000000000000000001F8020404020D4
:101DB0000000402020401F800000000009000600B5
:101DC0001F80060009000000040004003F8004009A
:101DD000040000000010006000000000000000008F
:101DE000040004000400040004000000000000409F
:101DF0000000000000000000002001C006003800C4
:101E0000400000001F802040204020401F80000034
:101E1000000010403FC000400000000018C02140FA
:101E200022402440184000001080204024402440DC
:101E30001B80000002000D0011003FC001400000A7
:101E40003C80244024402440238000001F80244004
:101E500024403440038000003000200027C03800B8
:101E6000200000001B802440244024401B800000F0
:101E70001C0022C0224022401F8000000000000001
:101E800008400000000000000000000004600000A6
:101E900000000000000004000A0011002080404003
:101EA0000900090009000900090000000000404085
:101EB000208011000A0004001800200023402400A4
:101EC000180000001F802040274029401F400000CC
:101ED000004007C039000F0001C0004020403FC053
:101EE000244024401B8000001F80204020402040D0
:101EF0003080000020403FC0204020401F80000074
:101F000020403FC024402E4030C0000020403FC051
:101F100024402E00300000000F001080204022409E
:101F20003380020020403FC0040004003FC0204036
:101F3000204020403FC02040204000000060202082
:101F400020203FC02000200020403FC024400B0044
:101F500030C0204020403FC020400040004000C032
:101F60003FC03C0003C03C003FC0000020403FC0D9
:101F70000C4023003FC020001F8020402040204014
:101F80001F80000020403FC02440240018000000B3
:101F90001F802140214020E01FA0000020403FC0C2
:101FA0002440260019C0004018C02440244022408C
:101FB00031800000300020403FC020403000000051
:101FC00020003F80004000403F80200020003E0075
:101FD00001C0070038002000380007C03C0007C0DF
:101FE00038000000204039C0060039C02040000001
:101FF0002000384007C0384020000000304021C099
:102000002640384020C00000000000007FE0402053
:1020100040200000000070000C0003800040000021
:102020000000402040207FE0000000000000200071
:102030004000200000000000001000100010001000
:102040000010001000000000400000000000000030
:10205000000002800540054003C0004020003FC052
:10206000044004400380000000000380044004405A
:102070000640000000000380044024403FC00040B0
:1020800000000380054005400340000000000440BC
:102090001FC0244024402000000002E005500550ED
:1020A0000650042020403FC00440040003C000400C
:1020B0000000044027C00040000000000010001095
:1020C000041027E00000000020403FC0014007004E
:1020D00004C00440204020403FC0004000400000B9
:1020E00007C0040007C0040003C00000044007C08C
:1020F0000440040003C0004000000380044004408A
:1021000003800000041007F0045004400380000026
:10211000000003800440045007F00010044007C092
:102120000240040004000000000006400540054095
:1021300004C00000000004001F80044000400000B4
:10214000040007800040044007C00040040007006E
:1021500004C0018006000400060001C0070001C0A1
:1021600006000000044006C0010006C00440000054
:102170000410071004E00180060004000000044081
:1021800005C00640044000000000000004007BE0A1
:1021900040200000000000000000FFF000000000F0
:1021A000000040207BE004000000000040008000B0
:1021B000400020002000400000000000000000005F
:1021C00000000000000000000000000000001FCC24
:1021D000000C00000000000000000800300060005B
:1021E0000800300060000000022003FC1E200220D6
:1021F00003FC1E200220000000000E1811043FFF07
:1022000010840C78000000000F0010840F3800C00C
:10221000077818840078000000780F8410C4112417
:102220000E9800E4008400080800680070000000B8
:10223000000000000000000000000000000007E0B7
:102240001818200440020000000040022004181862
:1022500007E00000000000000240024001800FF093
:1022600001800240024000000080008000800FF8E2
:1022700000800080008000000001000D000E0000C2
:1022800000000000000000000000008000800080CE
:1022900000800080008000800000000C000C000026
:1022A00000000000000000000000000600180060B0
:1022B0000180060018002000000007F00808100444
:1022C0001004080807F000000000080408041FFCC0
:1022D000000400040000000000000E0C1014102484
:1022E000104411840E0C000000000C18100411049E
:1022F000110412880C700000000000E00320042488
:1023000008241FFC0024000000001F981084110402
:102310001104108810700000000007F008881104F4
:10232000110418880070000000001C00100010FC50
:1023300013001C001000000000000E38114410842F
:10234000108411440E38000000000700088C10446F
:102350001044088807F00000000000000000030C93
:10236000030C000000000000000000000001010656
:10237000000000000000000000000080014002207A
:10238000041008081004000002200220022002208D
:10239000022002200220000000001004080804109F
:1023A000022001400080000000000E001200100C0E
:1023B000106C10800F00000003E00C1813E41424CC
:1023C00017C4082807D000000004003C03C41C40C8
:1023D000074000E4001C000410041FFC1104110459
:1023E00011040E880070000003E00C1810041004A3
:1023F000100410081C10000010041FFC100410042E
:102400001004080807F0000010041FFC1104110458
:1024100017C410040818000010041FFC1104110058
:1024200017C010000800000003E00C18100410048E
:1024300010441C780040000010041FFC1084008031
:10244000008010841FFC10040000100410041FFC06
:10245000100410040000000000030001100110012E
:102460001FFE10001000000010041FFC1104038068
:102470001464181C1004000010041FFC1004000455
:1024800000040004000C000010041FFC1F0000FCEE
:102490001F001FFC1004000010041FFC0C040300AC
:1024A00000E010181FFC100007F0080810041004CA
:1024B0001004080807F0000010041FFC10841080AE
:1024C000108010800F00000007F00818102410245E
:1024D000101C080A07F2000010041FFC1104110070
:1024E00011C011300E0C000400000E1C11041084E9
:1024F000108410441C3800001800100010041FFC49
:10250000100410001800000010001FF81004000450
:10251000000410041FF8100010001E0011E0001C41
:10252000007013801C0010001FC0103C00E01F0052
:1025300000E0103C1FC000001004180C163401C04D
:1025400001C01634180C100410001C00130400FC09
:1025500013041C00100000000804101C10641084F8
:1025600013041C04101800000000000000007FFE8F
:102570004002400240020000000030000C000380D6
:102580000060001C00030000000040024002400206
:102590007FFE00000000000000000000200040005E
:1025A0004000400020000000000100010001000187
:1025B0000001000100010001000040004000200077
:1025C0000000000000000000000000980124014409
:1025D0000144014400FC000410001FFC00880104B9
:1025E00001040088007000000000007000880104F1
:1025F000010401040088000000000070008801044C
:10260000010411081FFC0004000000F8014401440B
:102610000144014400C800000000010401040FFC53
:102620001104110411001800000000D6012901292D
:10263000012901C90106000010041FFC00840100EB
:102640000100010400FC000400000104190419FC4D
:10265000000400040000000000000003000101016C
:10266000190119FE0000000010041FFC00240040A6
:1026700001B4010C010400000000100410041FFC50
:102680000004000400000000010401FC010401003A
:1026900001FC0104010000FC010401FC00840100B4
:1026A0000100010400FC0004000000F80104010422
:1026B0000104010400F80000010101FF008501048C
:1026C0000104008800700000000000700088010410
:1026D0000104010501FF00010104010401FC008463
:1026E0000104010001800000000000CC012401244D
:1026F000012401240198000000000100010007F8F6
:102700000104010400000000010001F800040004BD
:102710000004010801FC0004010001800170000CAC
:10272000001001600180010001F0010C003001C0C7
:102730000030010C01F0010000000104018C007464
:102740000170018C01040000010101810171000E82
:10275000001801600180010000000184010C0134B7
:1027600001440184010C0000000000000000000092
:1027700001003EFC4002400200000000000000009A
:10278000FFFF0000000000000000400240023EFC8D
:1027900001000000000000000000600080008000D8
:1027A0004000400020002000000000000000000069
:1027B0000000000000000000000000000000000019
:1027C0000000000000000000000000000000000009
:1027D00000000000000000000000000F80380FFE25
:1027E000380F8038000000000000000000000000EA
:1027F0000000000000000100000600000C0000388E
:1028000000003100000600000C000038000030001D
:10281000000000000000000061800067F807F980F8
:102820000061800061800061800061800067F807BE
:10283000F98000618000000000000000000001C07D
:10284000E003E0F00630080418081FFFFE040E083D
:102850000787F00381E000000000000001F000069F
:102860000C00040408060C7001F9C0000E00003BC7
:10287000E000EC18070808040C180003E000000052
:102880000001E00007F003F818041C08041708070B
:10289000E1D003C0E00023B0003C080020080000A5
:1028A00010000000000000010000310000320000B4
:1028B0001C000000000000000000000000000000FC
:1028C0000000000000000000000000000000000008
:1028D00000000000000000007F0001FFC00780F042
:1028E0000C0018100004200002000000000000206E
:1028F00000021000040C00180780F001FFC0007FE8
:1029000000000000000000000000000000000000C7
:10291000000000004200006600006600003C00006D
:10292000180003FFC0001800003C000066000066AD
:10293000000042000000000008000008000008003D
:1029400000080000080001FFC000080000080000A7
:10295000080000080000080000000000000100005E
:102960003100003200001C000000000000000000E8
:102970000000000000000000000000000000000057
:102980000800000800000800000800000800000817
:102990000000080000080000080000080000000017
:1029A000000000000000000038000038000038007F
:1029B0000000000000000000000000000000000017
:1029C0000000000000000000000600001C00007075
:1029D000000180000E0000380000C0000700001C4D
:1029E0000000300000000000000000007F8001FFB8
:1029F000E0038070060018040008040008060018B0
:102A000003807001FFE0007F8000000000000000F4
:102A1000000001000801000801000803FFF807FF9B
:102A2000F800000800000800000800000000000096
:102A300000000001C03802C05804009804011804C6
:102A40000218040418061C1803F81801E0F8000026
:102A50000000000000000001C0E003C0F004000816
:102A600004080804080806180803F41801E7F00031
:102A700001E0000000000000000000000300000D65
:102A80000000110000610000810803010807FFF841
:102A90000FFFF8000108000108000000000000001E
:102AA00000E007FCD006080806100806100806100B
:102AB00008061838060FF00607C0000000000000E6
:102AC000000000003F8001FFE0038430020818048A
:102AD0001008041008041008071810030FF000076E
:102AE000C000000000000000000003C0000700005C
:102AF0000600000600F80607F806180006E00007C2
:102B0000000006000000000000000001E1E003F703
:102B1000F0063410041808041808040C08040C0803
:102B200006161803F3F001C1E000000000000000E9
:102B3000F80003FC3003063804020804020804020B
:102B4000080404100308F001FFC0007F000000002B
:102B50000000000000000000000000000000000075
:102B6000703800703800703800000000000000006D
:102B70000000000000000000000000000000000055
:102B800000000000301A00301C00000000000000AF
:102B9000000000000000000000000000000000082D
:102BA000000014000022000041000080800100406D
:102BB00002002004001008000800000000000000CF
:102BC000210000210000210000210000210000213F
:102BD0000000210000210000210000210000000071
:102BE000000000000000080008040010020020019E
:102BF0000040008080004100002200001400000816
:102C00000000000000000003C00004C00004000039
:102C1000080038080F380808380810000C30000782
:102C2000E00003C000000000000000003F8000FF43
:102C3000E0038070020F1006708804C088048308C7
:102C4000047F8802C09003012000FE4000000800BD
:102C500000180001F8003E0801C20007020007E268
:102C60000000FE00001FC80001F800003800000846
:102C700004000807FFF807FFF80408080408080420
:102C8000080804080806180803F41801E7F0000112
:102C9000E0000000000000003F8001FFE0038070C2
:102CA00002001804000804000804000804001006CC
:102CB00000200780C000000004000807FFF807FF9D
:102CC000F8040008040008040008040018020010BA
:102CD00003807001FFE0007F80000000040008070F
:102CE000FFF807FFF80408080408080408080408A7
:102CF00008043E08040008060018010060000000F7
:102D000004000807FFF807FFF80408080408000497
:102D10000800040800043E000600000600000180D0
:102D200000000000000000003F8001FFE003807011
:102D30000600180400080402080402080203F00751
:102D400083F000020000020004000807FFF807FFFC
:102D5000F804080800080000080000080000080047
:102D600004080807FFF807FFF80400080000000047
:102D7000000004000804000804000807FFF807FF2B
:102D8000F804000804000804000800000000000027
:102D9000000000000006000007000001040001041C
:102DA000000104000307FFFE07FFFC04000004000D
:102DB0000004000004000807FFF807FFF8040C08EF
:102DC000001800003E0004C7800503C80600F80490
:102DD000003804001800000804000807FFF807FF87
:102DE000F8040008000008000008000008000008BF
:102DF0000000080000180000600000000400080740
:102E0000FFF807800807FC00007FC00003F80007F8
:102E1000C000780007800807FFF807FFF8040008E3
:102E200004000807FFF807000803C00000E00000E6
:102E30003800001E000007000001C00400F007FF7A
:102E4000F8040000000000007F8001FFE0038070B4
:102E500006001804000804000806001803003001EA
:102E6000FFE0007F8000000004000807FFF807FF74
:102E7000F80404080404000404000404000404002A
:102E8000060C0003F80001F0000000000000000044
:102E90007F8001FFE0038070060088040088040042
:102EA000C806003C03003E01FFE6007F84000000EE
:102EB00004000807FFF807FFF804080804080004E6
:102EC0000C00040F00040BC00610F003F03801E002
:102ED0000800000800000001E0F803F030063010A0
:102EE000041808041808040C08040C080206180248
:102EF00007F00781E00000000180000600000400E8
:102F00000004000004000807FFF807FFF8040008A9
:102F10000400000400000600000180000400000717
:102F2000FFE007FFF00400180000080000080000A0
:102F30000800000800000804001007FFE00400007B
:102F400004000006000007E00007FE00041FE00088
:102F500001F80000380001E0043E0007C000060050
:102F60000004000004000007E00007FFC0041FF891
:102F70000007C007F80007FF80043FF80007C004FF
:102F8000F80007000004000000000004000806002C
:102F90001807C07805F1C8003E00001F800463E8F0
:102FA0000780F8060018040008000000040000066E
:102FB000000007800007E008047C08001FF80007F5
:102FC000F800180804E008070000060000040000EC
:102FD0000000000100080600380400F80403E804BB
:102FE0000F08047C0805F00807C008070018040053
:102FF0006000000000000000000000000000000071
:103000000000003FFFFE20000220000220000220FE
:103010000002200002000000000000000000080084
:103020000007000000C0000038000006000001C0DA
:1030300000003000000E0000010000000000000051
:1030400000002000022000022000022000022000D8
:10305000023FFFFE00000000000000000000000032
:103060000000000000000000000800001000003018
:1030700000002000003000001000000800000000E8
:10308000000000000000010000010000010000013C
:10309000000001000001000001000001000001002B
:1030A000000100000100000100000000000000001D
:1030B00000200000200000100000100000000000B0
:1030C0000000000000000000000000000000000000
:1030D00000F00019F8001B18002208002608002440
:1030E00008002410003FF8001FF800000800001836
:1030F00000000004000007FFF80FFFF000181800A0
:103100001008002008002008003018001FF0000FF1
:10311000C00000000000000007C0001FF0001830D1
:10312000002008002008002008003C08001C1000B7
:1031300000600000000000000000000007C0001F49
:10314000F0003818002008002008002008041010A3
:1031500007FFF80FFFF00000100000000000000063
:1031600000000007C0001FF00012300022180022EB
:1031700008002208003208001E10000E2000000087
:1031800000000000200000200800200801FFF803D4
:10319000FFF8062008042008042008072000030088
:1031A0000000000000000000000E000E6E001FF383
:1031B0000031B10020B10020B1003191001F130097
:1031C0002E1E00200E00300000000004000807FF43
:1031D000F80FFFF800100800200000200000200871
:1031E000003FF8001FF80000080000000000000089
:1031F0000000002008002008002008063FF8063FD5
:10320000F8000008000008000008000000000000AE
:103210000000000000000000030000030020010087
:103220002001002003063FFE063FFC0000000000D6
:103230000000000000000004000807FFF80FFFF87E
:10324000000188000300002FC00038F8002038007B
:10325000200800000800000000000000000004003A
:103260000804000804000807FFF80FFFF800000832
:103270000000080000080000000000000020080016
:103280003FF8003FF8001008002000003FF8003F22
:10329000F8001008002000003FF8003FF800000888
:1032A000000000002008003FF8003FF80010080070
:1032B0001000002000002008003FF8001FF8000068
:1032C000080000000000000007C0000FF0001830E8
:1032D00000300800200800200800300800183000E6
:1032E0000FF00007C0000000000000002001003FB8
:1032F000FF003FFF001011002009002008002008F7
:10330000003038001FF0000FC00000000000000077
:1033100007C0001FF0003818002008002008002017
:1033200009001011001FFF003FFF00000100000016
:10333000002008002008002008003FF8003FF800A7
:1033400008080010080020080020000030000030AD
:1033500000000000000000000000000C78001E18B3
:10336000003308002308002108002188002198006C
:1033700030F0003860000000000000002000002055
:103380000000200000FFF003FFF8002008002008E4
:1033900000200800003000000000000000000000D5
:1033A0002000003FF0007FF8000018000008000037
:1033B00008002010003FF8007FF00000100000001F
:1033C000000000002000003000003C00003F8000B2
:1033D00023F0000078000070002380003C000030E3
:1033E00000002000002000003C00003FE00023F827
:1033F0000000E0002700003E00003FE00021F80050
:1034000001E0003E00002000000000002008002035
:1034100008003838003E680027800003C8002CF8F8
:1034200000383800201800200800000000000000CC
:103430002000003003003C01003F830023EC00002B
:1034400070002380003C00002000002000000000ED
:103450000000000000000038080020380020F800BC
:1034600023E8002F88003E080038080020180000DC
:1034700070000000000000000000000000000000DC
:103480000000000008000014001FF7FC30000620B8
:10349000000200000000000000000000000000002A
:1034A00000000000000000000000FFFFFF0000001F
:1034B000000000000000000000000000000000000C
:1034C00000002000023000061FF7FC001400000876
:1034D00000000000000000000000000000000000EC
:1034E00000000018000060000040000040000020C4
:1034F00000001000000800000400000400000C00A0
:1035000000100000243500080000002034000000F6
:103510006C01000858350008340000202C0B000016
:103520008801000800A24A0400000000000000001A
:103530000102030406070809000000000000000063
:10354000000000000000010203040102030406075A
:0835500008090204060801004D
:04000005080001D519
:00000001FF
